{
	"contracts/4_ZombieFactory.sol": {
		"ZombieFactory": {
			"abi": [
				{
					"anonymous": false,
					"inputs": [
						{
							"indexed": false,
							"internalType": "uint256",
							"name": "zombieId",
							"type": "uint256"
						},
						{
							"indexed": false,
							"internalType": "string",
							"name": "name",
							"type": "string"
						},
						{
							"indexed": false,
							"internalType": "uint256",
							"name": "dna",
							"type": "uint256"
						}
					],
					"name": "NewZombie",
					"type": "event"
				},
				{
					"inputs": [
						{
							"internalType": "string",
							"name": "_name",
							"type": "string"
						}
					],
					"name": "createRandomZombie",
					"outputs": [],
					"stateMutability": "nonpayable",
					"type": "function"
				},
				{
					"inputs": [
						{
							"internalType": "uint256",
							"name": "",
							"type": "uint256"
						}
					],
					"name": "zombies",
					"outputs": [
						{
							"internalType": "string",
							"name": "name",
							"type": "string"
						},
						{
							"internalType": "uint256",
							"name": "dna",
							"type": "uint256"
						}
					],
					"stateMutability": "view",
					"type": "function"
				}
			],
			"devdoc": {
				"kind": "dev",
				"methods": {},
				"version": 1
			},
			"evm": {
				"assembly": "    /* \"contracts/4_ZombieFactory.sol\":60:1859  contract ZombieFactory {... */\n  mstore(0x40, 0x80)\n    /* \"contracts/4_ZombieFactory.sol\":285:287  16 */\n  0x10\n    /* \"contracts/4_ZombieFactory.sol\":268:287  uint dnaDigits = 16 */\n  0x00\n  sstore\n    /* \"contracts/4_ZombieFactory.sol\":390:399  dnaDigits */\n  sload(0x00)\n    /* \"contracts/4_ZombieFactory.sol\":384:386  10 */\n  0x0a\n    /* \"contracts/4_ZombieFactory.sol\":384:399  10 ** dnaDigits */\n  tag_1\n  swap2\n  swap1\n  tag_2\n  jump\t// in\ntag_1:\n    /* \"contracts/4_ZombieFactory.sol\":366:399  uint dnaModulus = 10 ** dnaDigits */\n  0x01\n  sstore\n    /* \"contracts/4_ZombieFactory.sol\":60:1859  contract ZombieFactory {... */\n  callvalue\n  dup1\n  iszero\n  tag_3\n  jumpi\n  0x00\n  dup1\n  revert\ntag_3:\n  pop\n  jump(tag_4)\n    /* \"#utility.yul\":7:187   */\ntag_5:\n    /* \"#utility.yul\":55:132   */\n  0x4e487b7100000000000000000000000000000000000000000000000000000000\n    /* \"#utility.yul\":52:53   */\n  0x00\n    /* \"#utility.yul\":45:133   */\n  mstore\n    /* \"#utility.yul\":152:156   */\n  0x11\n    /* \"#utility.yul\":149:150   */\n  0x04\n    /* \"#utility.yul\":142:157   */\n  mstore\n    /* \"#utility.yul\":176:180   */\n  0x24\n    /* \"#utility.yul\":173:174   */\n  0x00\n    /* \"#utility.yul\":166:181   */\n  revert\n    /* \"#utility.yul\":193:295   */\ntag_6:\n    /* \"#utility.yul\":235:243   */\n  0x00\n    /* \"#utility.yul\":282:287   */\n  dup2\n    /* \"#utility.yul\":279:280   */\n  0x01\n    /* \"#utility.yul\":275:288   */\n  shr\n    /* \"#utility.yul\":254:288   */\n  swap1\n  pop\n    /* \"#utility.yul\":193:295   */\n  swap2\n  swap1\n  pop\n  jump\t// out\n    /* \"#utility.yul\":301:1149   */\ntag_7:\n    /* \"#utility.yul\":362:367   */\n  0x00\n    /* \"#utility.yul\":369:373   */\n  dup1\n    /* \"#utility.yul\":393:399   */\n  dup3\n    /* \"#utility.yul\":384:399   */\n  swap2\n  pop\n    /* \"#utility.yul\":417:422   */\n  dup4\n    /* \"#utility.yul\":408:422   */\n  swap1\n  pop\n    /* \"#utility.yul\":431:1143   */\ntag_14:\n    /* \"#utility.yul\":452:453   */\n  0x01\n    /* \"#utility.yul\":442:450   */\n  dup6\n    /* \"#utility.yul\":439:454   */\n  gt\n    /* \"#utility.yul\":431:1143   */\n  iszero\n  tag_16\n  jumpi\n    /* \"#utility.yul\":547:551   */\n  dup1\n    /* \"#utility.yul\":542:545   */\n  dup7\n    /* \"#utility.yul\":538:552   */\n  div\n    /* \"#utility.yul\":532:536   */\n  dup2\n    /* \"#utility.yul\":529:553   */\n  gt\n    /* \"#utility.yul\":526:576   */\n  iszero\n  tag_17\n  jumpi\n    /* \"#utility.yul\":556:574   */\n  tag_18\n  tag_5\n  jump\t// in\ntag_18:\n    /* \"#utility.yul\":526:576   */\ntag_17:\n    /* \"#utility.yul\":606:607   */\n  0x01\n    /* \"#utility.yul\":596:604   */\n  dup6\n    /* \"#utility.yul\":592:608   */\n  and\n    /* \"#utility.yul\":589:1040   */\n  iszero\n  tag_19\n  jumpi\n    /* \"#utility.yul\":1021:1025   */\n  dup1\n    /* \"#utility.yul\":1014:1019   */\n  dup3\n    /* \"#utility.yul\":1010:1026   */\n  mul\n    /* \"#utility.yul\":1001:1026   */\n  swap2\n  pop\n    /* \"#utility.yul\":589:1040   */\ntag_19:\n    /* \"#utility.yul\":1071:1075   */\n  dup1\n    /* \"#utility.yul\":1065:1069   */\n  dup2\n    /* \"#utility.yul\":1061:1076   */\n  mul\n    /* \"#utility.yul\":1053:1076   */\n  swap1\n  pop\n    /* \"#utility.yul\":1101:1133   */\n  tag_20\n    /* \"#utility.yul\":1124:1132   */\n  dup6\n    /* \"#utility.yul\":1101:1133   */\n  tag_6\n  jump\t// in\ntag_20:\n    /* \"#utility.yul\":1089:1133   */\n  swap5\n  pop\n    /* \"#utility.yul\":431:1143   */\n  jump(tag_14)\ntag_16:\n    /* \"#utility.yul\":301:1149   */\n  swap5\n  pop\n  swap5\n  swap3\n  pop\n  pop\n  pop\n  jump\t// out\n    /* \"#utility.yul\":1155:2228   */\ntag_8:\n    /* \"#utility.yul\":1209:1214   */\n  0x00\n    /* \"#utility.yul\":1400:1408   */\n  dup3\n    /* \"#utility.yul\":1390:1430   */\n  tag_22\n  jumpi\n    /* \"#utility.yul\":1421:1422   */\n  0x01\n    /* \"#utility.yul\":1412:1422   */\n  swap1\n  pop\n    /* \"#utility.yul\":1423:1428   */\n  jump(tag_21)\n    /* \"#utility.yul\":1390:1430   */\ntag_22:\n    /* \"#utility.yul\":1449:1453   */\n  dup2\n    /* \"#utility.yul\":1439:1475   */\n  tag_23\n  jumpi\n    /* \"#utility.yul\":1466:1467   */\n  0x00\n    /* \"#utility.yul\":1457:1467   */\n  swap1\n  pop\n    /* \"#utility.yul\":1468:1473   */\n  jump(tag_21)\n    /* \"#utility.yul\":1439:1475   */\ntag_23:\n    /* \"#utility.yul\":1535:1539   */\n  dup2\n    /* \"#utility.yul\":1583:1584   */\n  0x01\n    /* \"#utility.yul\":1578:1605   */\n  dup2\n  eq\n  tag_25\n  jumpi\n    /* \"#utility.yul\":1619:1620   */\n  0x02\n    /* \"#utility.yul\":1614:1805   */\n  dup2\n  eq\n  tag_26\n  jumpi\n    /* \"#utility.yul\":1528:1805   */\n  jump(tag_24)\n    /* \"#utility.yul\":1578:1605   */\ntag_25:\n    /* \"#utility.yul\":1596:1597   */\n  0x01\n    /* \"#utility.yul\":1587:1597   */\n  swap2\n  pop\n    /* \"#utility.yul\":1598:1603   */\n  pop\n  jump(tag_21)\n    /* \"#utility.yul\":1614:1805   */\ntag_26:\n    /* \"#utility.yul\":1659:1662   */\n  0xff\n    /* \"#utility.yul\":1649:1657   */\n  dup5\n    /* \"#utility.yul\":1646:1663   */\n  gt\n    /* \"#utility.yul\":1643:1686   */\n  iszero\n  tag_27\n  jumpi\n    /* \"#utility.yul\":1666:1684   */\n  tag_28\n  tag_5\n  jump\t// in\ntag_28:\n    /* \"#utility.yul\":1643:1686   */\ntag_27:\n    /* \"#utility.yul\":1715:1723   */\n  dup4\n    /* \"#utility.yul\":1712:1713   */\n  0x02\n    /* \"#utility.yul\":1708:1724   */\n  exp\n    /* \"#utility.yul\":1699:1724   */\n  swap2\n  pop\n    /* \"#utility.yul\":1750:1753   */\n  dup5\n    /* \"#utility.yul\":1743:1748   */\n  dup3\n    /* \"#utility.yul\":1740:1754   */\n  gt\n    /* \"#utility.yul\":1737:1777   */\n  iszero\n  tag_29\n  jumpi\n    /* \"#utility.yul\":1757:1775   */\n  tag_30\n  tag_5\n  jump\t// in\ntag_30:\n    /* \"#utility.yul\":1737:1777   */\ntag_29:\n    /* \"#utility.yul\":1790:1795   */\n  pop\n  jump(tag_21)\n    /* \"#utility.yul\":1528:1805   */\ntag_24:\n  pop\n    /* \"#utility.yul\":1914:1916   */\n  0x20\n    /* \"#utility.yul\":1904:1912   */\n  dup4\n    /* \"#utility.yul\":1901:1917   */\n  lt\n    /* \"#utility.yul\":1895:1898   */\n  0x0133\n    /* \"#utility.yul\":1889:1893   */\n  dup4\n    /* \"#utility.yul\":1886:1899   */\n  lt\n    /* \"#utility.yul\":1882:1918   */\n  and\n    /* \"#utility.yul\":1864:1866   */\n  0x4e\n    /* \"#utility.yul\":1854:1862   */\n  dup5\n    /* \"#utility.yul\":1851:1867   */\n  lt\n    /* \"#utility.yul\":1846:1848   */\n  0x0b\n    /* \"#utility.yul\":1840:1844   */\n  dup5\n    /* \"#utility.yul\":1837:1849   */\n  lt\n    /* \"#utility.yul\":1833:1868   */\n  and\n    /* \"#utility.yul\":1817:1928   */\n  or\n    /* \"#utility.yul\":1814:2060   */\n  iszero\n  tag_31\n  jumpi\n    /* \"#utility.yul\":1970:1978   */\n  dup3\n    /* \"#utility.yul\":1964:1968   */\n  dup3\n    /* \"#utility.yul\":1960:1979   */\n  exp\n    /* \"#utility.yul\":1951:1979   */\n  swap1\n  pop\n    /* \"#utility.yul\":2005:2008   */\n  dup4\n    /* \"#utility.yul\":1998:2003   */\n  dup2\n    /* \"#utility.yul\":1995:2009   */\n  gt\n    /* \"#utility.yul\":1992:2032   */\n  iszero\n  tag_32\n  jumpi\n    /* \"#utility.yul\":2012:2030   */\n  tag_33\n  tag_5\n  jump\t// in\ntag_33:\n    /* \"#utility.yul\":1992:2032   */\ntag_32:\n    /* \"#utility.yul\":2045:2050   */\n  jump(tag_21)\n    /* \"#utility.yul\":1814:2060   */\ntag_31:\n    /* \"#utility.yul\":2085:2127   */\n  tag_34\n    /* \"#utility.yul\":2123:2126   */\n  dup5\n    /* \"#utility.yul\":2113:2121   */\n  dup5\n    /* \"#utility.yul\":2107:2111   */\n  dup5\n    /* \"#utility.yul\":2104:2105   */\n  0x01\n    /* \"#utility.yul\":2085:2127   */\n  tag_7\n  jump\t// in\ntag_34:\n    /* \"#utility.yul\":2070:2127   */\n  swap3\n  pop\n  swap1\n  pop\n    /* \"#utility.yul\":2159:2163   */\n  dup2\n    /* \"#utility.yul\":2154:2157   */\n  dup5\n    /* \"#utility.yul\":2150:2164   */\n  div\n    /* \"#utility.yul\":2143:2148   */\n  dup2\n    /* \"#utility.yul\":2140:2165   */\n  gt\n    /* \"#utility.yul\":2137:2188   */\n  iszero\n  tag_35\n  jumpi\n    /* \"#utility.yul\":2168:2186   */\n  tag_36\n  tag_5\n  jump\t// in\ntag_36:\n    /* \"#utility.yul\":2137:2188   */\ntag_35:\n    /* \"#utility.yul\":2217:2221   */\n  dup2\n    /* \"#utility.yul\":2210:2215   */\n  dup2\n    /* \"#utility.yul\":2206:2222   */\n  mul\n    /* \"#utility.yul\":2197:2222   */\n  swap1\n  pop\n    /* \"#utility.yul\":1155:2228   */\ntag_21:\n  swap4\n  swap3\n  pop\n  pop\n  pop\n  jump\t// out\n    /* \"#utility.yul\":2234:2311   */\ntag_9:\n    /* \"#utility.yul\":2271:2278   */\n  0x00\n    /* \"#utility.yul\":2300:2305   */\n  dup2\n    /* \"#utility.yul\":2289:2305   */\n  swap1\n  pop\n    /* \"#utility.yul\":2234:2311   */\n  swap2\n  swap1\n  pop\n  jump\t// out\n    /* \"#utility.yul\":2317:2602   */\ntag_2:\n    /* \"#utility.yul\":2377:2382   */\n  0x00\n    /* \"#utility.yul\":2401:2424   */\n  tag_39\n    /* \"#utility.yul\":2419:2423   */\n  dup3\n    /* \"#utility.yul\":2401:2424   */\n  tag_9\n  jump\t// in\ntag_39:\n    /* \"#utility.yul\":2393:2424   */\n  swap2\n  pop\n    /* \"#utility.yul\":2445:2472   */\n  tag_40\n    /* \"#utility.yul\":2463:2471   */\n  dup4\n    /* \"#utility.yul\":2445:2472   */\n  tag_9\n  jump\t// in\ntag_40:\n    /* \"#utility.yul\":2433:2472   */\n  swap3\n  pop\n    /* \"#utility.yul\":2491:2595   */\n  tag_41\n    /* \"#utility.yul\":2528:2594   */\n  0xffffffffffffffffffffffffffffffffffffffffffffffffffffffffffffffff\n    /* \"#utility.yul\":2518:2526   */\n  dup5\n    /* \"#utility.yul\":2512:2516   */\n  dup5\n    /* \"#utility.yul\":2491:2595   */\n  tag_8\n  jump\t// in\ntag_41:\n    /* \"#utility.yul\":2482:2595   */\n  swap1\n  pop\n    /* \"#utility.yul\":2317:2602   */\n  swap3\n  swap2\n  pop\n  pop\n  jump\t// out\n    /* \"contracts/4_ZombieFactory.sol\":60:1859  contract ZombieFactory {... */\ntag_4:\n  dataSize(sub_0)\n  dup1\n  dataOffset(sub_0)\n  0x00\n  codecopy\n  0x00\n  return\nstop\n\nsub_0: assembly {\n        /* \"contracts/4_ZombieFactory.sol\":60:1859  contract ZombieFactory {... */\n      mstore(0x40, 0x80)\n      callvalue\n      dup1\n      iszero\n      tag_1\n      jumpi\n      0x00\n      dup1\n      revert\n    tag_1:\n      pop\n      jumpi(tag_2, lt(calldatasize, 0x04))\n      shr(0xe0, calldataload(0x00))\n      dup1\n      0x2052465e\n      eq\n      tag_3\n      jumpi\n      dup1\n      0x7bff0a01\n      eq\n      tag_4\n      jumpi\n    tag_2:\n      0x00\n      dup1\n      revert\n        /* \"contracts/4_ZombieFactory.sol\":594:617  Zombie[] public zombies */\n    tag_3:\n      tag_5\n      0x04\n      dup1\n      calldatasize\n      sub\n      dup2\n      add\n      swap1\n      tag_6\n      swap2\n      swap1\n      tag_7\n      jump\t// in\n    tag_6:\n      tag_8\n      jump\t// in\n    tag_5:\n      mload(0x40)\n      tag_9\n      swap3\n      swap2\n      swap1\n      tag_10\n      jump\t// in\n    tag_9:\n      mload(0x40)\n      dup1\n      swap2\n      sub\n      swap1\n      return\n        /* \"contracts/4_ZombieFactory.sol\":1593:1854  function createRandomZombie(string memory _name) public {... */\n    tag_4:\n      tag_11\n      0x04\n      dup1\n      calldatasize\n      sub\n      dup2\n      add\n      swap1\n      tag_12\n      swap2\n      swap1\n      tag_13\n      jump\t// in\n    tag_12:\n      tag_14\n      jump\t// in\n    tag_11:\n      stop\n        /* \"contracts/4_ZombieFactory.sol\":594:617  Zombie[] public zombies */\n    tag_8:\n      0x02\n      dup2\n      dup2\n      sload\n      dup2\n      lt\n      tag_15\n      jumpi\n      0x00\n      dup1\n      revert\n    tag_15:\n      swap1\n      0x00\n      mstore\n      keccak256(0x00, 0x20)\n      swap1\n      0x02\n      mul\n      add\n      0x00\n      swap2\n      pop\n      swap1\n      pop\n      dup1\n      0x00\n      add\n      dup1\n      sload\n      tag_17\n      swap1\n      tag_18\n      jump\t// in\n    tag_17:\n      dup1\n      0x1f\n      add\n      0x20\n      dup1\n      swap2\n      div\n      mul\n      0x20\n      add\n      mload(0x40)\n      swap1\n      dup2\n      add\n      0x40\n      mstore\n      dup1\n      swap3\n      swap2\n      swap1\n      dup2\n      dup2\n      mstore\n      0x20\n      add\n      dup3\n      dup1\n      sload\n      tag_19\n      swap1\n      tag_18\n      jump\t// in\n    tag_19:\n      dup1\n      iszero\n      tag_20\n      jumpi\n      dup1\n      0x1f\n      lt\n      tag_21\n      jumpi\n      0x0100\n      dup1\n      dup4\n      sload\n      div\n      mul\n      dup4\n      mstore\n      swap2\n      0x20\n      add\n      swap2\n      jump(tag_20)\n    tag_21:\n      dup3\n      add\n      swap2\n      swap1\n      0x00\n      mstore\n      keccak256(0x00, 0x20)\n      swap1\n    tag_22:\n      dup2\n      sload\n      dup2\n      mstore\n      swap1\n      0x01\n      add\n      swap1\n      0x20\n      add\n      dup1\n      dup4\n      gt\n      tag_22\n      jumpi\n      dup3\n      swap1\n      sub\n      0x1f\n      and\n      dup3\n      add\n      swap2\n    tag_20:\n      pop\n      pop\n      pop\n      pop\n      pop\n      swap1\n      dup1\n      0x01\n      add\n      sload\n      swap1\n      pop\n      dup3\n      jump\t// out\n        /* \"contracts/4_ZombieFactory.sol\":1593:1854  function createRandomZombie(string memory _name) public {... */\n    tag_14:\n        /* \"contracts/4_ZombieFactory.sol\":1718:1730  uint randDna */\n      0x00\n        /* \"contracts/4_ZombieFactory.sol\":1733:1758  _generateRandomDna(_name) */\n      tag_24\n        /* \"contracts/4_ZombieFactory.sol\":1752:1757  _name */\n      dup3\n        /* \"contracts/4_ZombieFactory.sol\":1733:1751  _generateRandomDna */\n      tag_25\n        /* \"contracts/4_ZombieFactory.sol\":1733:1758  _generateRandomDna(_name) */\n      jump\t// in\n    tag_24:\n        /* \"contracts/4_ZombieFactory.sol\":1718:1758  uint randDna = _generateRandomDna(_name) */\n      swap1\n      pop\n        /* \"contracts/4_ZombieFactory.sol\":1817:1846  _createZombie(_name, randDna) */\n      tag_26\n        /* \"contracts/4_ZombieFactory.sol\":1831:1836  _name */\n      dup3\n        /* \"contracts/4_ZombieFactory.sol\":1838:1845  randDna */\n      dup3\n        /* \"contracts/4_ZombieFactory.sol\":1817:1830  _createZombie */\n      tag_27\n        /* \"contracts/4_ZombieFactory.sol\":1817:1846  _createZombie(_name, randDna) */\n      jump\t// in\n    tag_26:\n        /* \"contracts/4_ZombieFactory.sol\":1649:1854  {... */\n      pop\n        /* \"contracts/4_ZombieFactory.sol\":1593:1854  function createRandomZombie(string memory _name) public {... */\n      pop\n      jump\t// out\n        /* \"contracts/4_ZombieFactory.sol\":1141:1503  function _generateRandomDna(string memory _str) private view returns (uint) {... */\n    tag_25:\n        /* \"contracts/4_ZombieFactory.sol\":1211:1215  uint */\n      0x00\n        /* \"contracts/4_ZombieFactory.sol\":1300:1309  uint rand */\n      dup1\n        /* \"contracts/4_ZombieFactory.sol\":1344:1348  _str */\n      dup3\n        /* \"contracts/4_ZombieFactory.sol\":1327:1349  abi.encodePacked(_str) */\n      add(0x20, mload(0x40))\n      tag_29\n      swap2\n      swap1\n      tag_30\n      jump\t// in\n    tag_29:\n      mload(0x40)\n      0x20\n      dup2\n      dup4\n      sub\n      sub\n      dup2\n      mstore\n      swap1\n      0x40\n      mstore\n        /* \"contracts/4_ZombieFactory.sol\":1317:1350  keccak256(abi.encodePacked(_str)) */\n      dup1\n      mload\n      swap1\n      0x20\n      add\n      keccak256\n        /* \"contracts/4_ZombieFactory.sol\":1312:1351  uint(keccak256(abi.encodePacked(_str))) */\n      0x00\n      shr\n        /* \"contracts/4_ZombieFactory.sol\":1300:1351  uint rand = uint(keccak256(abi.encodePacked(_str))) */\n      swap1\n      pop\n        /* \"contracts/4_ZombieFactory.sol\":1485:1495  dnaModulus */\n      sload(0x01)\n        /* \"contracts/4_ZombieFactory.sol\":1478:1482  rand */\n      dup2\n        /* \"contracts/4_ZombieFactory.sol\":1478:1495  rand % dnaModulus */\n      tag_31\n      swap2\n      swap1\n      tag_32\n      jump\t// in\n    tag_31:\n        /* \"contracts/4_ZombieFactory.sol\":1471:1495  return rand % dnaModulus */\n      swap2\n      pop\n      pop\n        /* \"contracts/4_ZombieFactory.sol\":1141:1503  function _generateRandomDna(string memory _str) private view returns (uint) {... */\n      swap2\n      swap1\n      pop\n      jump\t// out\n        /* \"contracts/4_ZombieFactory.sol\":710:1049  function _createZombie(string memory _name, uint _dna) private {... */\n    tag_27:\n        /* \"contracts/4_ZombieFactory.sol\":851:858  uint id */\n      0x00\n        /* \"contracts/4_ZombieFactory.sol\":861:868  zombies */\n      0x02\n        /* \"contracts/4_ZombieFactory.sol\":861:875  zombies.length */\n      dup1\n      sload\n      swap1\n      pop\n        /* \"contracts/4_ZombieFactory.sol\":851:875  uint id = zombies.length */\n      swap1\n      pop\n        /* \"contracts/4_ZombieFactory.sol\":929:936  zombies */\n      0x02\n        /* \"contracts/4_ZombieFactory.sol\":942:961  Zombie(_name, _dna) */\n      mload(0x40)\n      dup1\n      0x40\n      add\n      0x40\n      mstore\n      dup1\n        /* \"contracts/4_ZombieFactory.sol\":949:954  _name */\n      dup6\n        /* \"contracts/4_ZombieFactory.sol\":942:961  Zombie(_name, _dna) */\n      dup2\n      mstore\n      0x20\n      add\n        /* \"contracts/4_ZombieFactory.sol\":956:960  _dna */\n      dup5\n        /* \"contracts/4_ZombieFactory.sol\":942:961  Zombie(_name, _dna) */\n      dup2\n      mstore\n      pop\n        /* \"contracts/4_ZombieFactory.sol\":929:962  zombies.push(Zombie(_name, _dna)) */\n      swap1\n      dup1\n      0x01\n      dup2\n      sload\n      add\n      dup1\n      dup3\n      sstore\n      dup1\n      swap2\n      pop\n      pop\n      0x01\n      swap1\n      sub\n      swap1\n      0x00\n      mstore\n      keccak256(0x00, 0x20)\n      swap1\n      0x02\n      mul\n      add\n      0x00\n      swap1\n      swap2\n      swap1\n      swap2\n      swap1\n      swap2\n      pop\n      0x00\n      dup3\n      add\n      mload\n      dup2\n      0x00\n      add\n      swap1\n      dup2\n      tag_35\n      swap2\n      swap1\n      tag_36\n      jump\t// in\n    tag_35:\n      pop\n      0x20\n      dup3\n      add\n      mload\n      dup2\n      0x01\n      add\n      sstore\n      pop\n      pop\n        /* \"contracts/4_ZombieFactory.sol\":1015:1041  NewZombie(id, _name, _dna) */\n      0x88f026aacbbecc90c18411df4b1185fd8d9be2470f1962f192bf84a27d0704b7\n        /* \"contracts/4_ZombieFactory.sol\":1025:1027  id */\n      dup2\n        /* \"contracts/4_ZombieFactory.sol\":1029:1034  _name */\n      dup5\n        /* \"contracts/4_ZombieFactory.sol\":1036:1040  _dna */\n      dup5\n        /* \"contracts/4_ZombieFactory.sol\":1015:1041  NewZombie(id, _name, _dna) */\n      mload(0x40)\n      tag_37\n      swap4\n      swap3\n      swap2\n      swap1\n      tag_38\n      jump\t// in\n    tag_37:\n      mload(0x40)\n      dup1\n      swap2\n      sub\n      swap1\n      log1\n        /* \"contracts/4_ZombieFactory.sol\":773:1049  {... */\n      pop\n        /* \"contracts/4_ZombieFactory.sol\":710:1049  function _createZombie(string memory _name, uint _dna) private {... */\n      pop\n      pop\n      jump\t// out\n        /* \"#utility.yul\":7:82   */\n    tag_39:\n        /* \"#utility.yul\":40:46   */\n      0x00\n        /* \"#utility.yul\":73:75   */\n      0x40\n        /* \"#utility.yul\":67:76   */\n      mload\n        /* \"#utility.yul\":57:76   */\n      swap1\n      pop\n        /* \"#utility.yul\":7:82   */\n      swap1\n      jump\t// out\n        /* \"#utility.yul\":88:205   */\n    tag_40:\n        /* \"#utility.yul\":197:198   */\n      0x00\n        /* \"#utility.yul\":194:195   */\n      dup1\n        /* \"#utility.yul\":187:199   */\n      revert\n        /* \"#utility.yul\":211:328   */\n    tag_41:\n        /* \"#utility.yul\":320:321   */\n      0x00\n        /* \"#utility.yul\":317:318   */\n      dup1\n        /* \"#utility.yul\":310:322   */\n      revert\n        /* \"#utility.yul\":334:411   */\n    tag_42:\n        /* \"#utility.yul\":371:378   */\n      0x00\n        /* \"#utility.yul\":400:405   */\n      dup2\n        /* \"#utility.yul\":389:405   */\n      swap1\n      pop\n        /* \"#utility.yul\":334:411   */\n      swap2\n      swap1\n      pop\n      jump\t// out\n        /* \"#utility.yul\":417:539   */\n    tag_43:\n        /* \"#utility.yul\":490:514   */\n      tag_85\n        /* \"#utility.yul\":508:513   */\n      dup2\n        /* \"#utility.yul\":490:514   */\n      tag_42\n      jump\t// in\n    tag_85:\n        /* \"#utility.yul\":483:488   */\n      dup2\n        /* \"#utility.yul\":480:515   */\n      eq\n        /* \"#utility.yul\":470:533   */\n      tag_86\n      jumpi\n        /* \"#utility.yul\":529:530   */\n      0x00\n        /* \"#utility.yul\":526:527   */\n      dup1\n        /* \"#utility.yul\":519:531   */\n      revert\n        /* \"#utility.yul\":470:533   */\n    tag_86:\n        /* \"#utility.yul\":417:539   */\n      pop\n      jump\t// out\n        /* \"#utility.yul\":545:684   */\n    tag_44:\n        /* \"#utility.yul\":591:596   */\n      0x00\n        /* \"#utility.yul\":629:635   */\n      dup2\n        /* \"#utility.yul\":616:636   */\n      calldataload\n        /* \"#utility.yul\":607:636   */\n      swap1\n      pop\n        /* \"#utility.yul\":645:678   */\n      tag_88\n        /* \"#utility.yul\":672:677   */\n      dup2\n        /* \"#utility.yul\":645:678   */\n      tag_43\n      jump\t// in\n    tag_88:\n        /* \"#utility.yul\":545:684   */\n      swap3\n      swap2\n      pop\n      pop\n      jump\t// out\n        /* \"#utility.yul\":690:1019   */\n    tag_7:\n        /* \"#utility.yul\":749:755   */\n      0x00\n        /* \"#utility.yul\":798:800   */\n      0x20\n        /* \"#utility.yul\":786:795   */\n      dup3\n        /* \"#utility.yul\":777:784   */\n      dup5\n        /* \"#utility.yul\":773:796   */\n      sub\n        /* \"#utility.yul\":769:801   */\n      slt\n        /* \"#utility.yul\":766:885   */\n      iszero\n      tag_90\n      jumpi\n        /* \"#utility.yul\":804:883   */\n      tag_91\n      tag_40\n      jump\t// in\n    tag_91:\n        /* \"#utility.yul\":766:885   */\n    tag_90:\n        /* \"#utility.yul\":924:925   */\n      0x00\n        /* \"#utility.yul\":949:1002   */\n      tag_92\n        /* \"#utility.yul\":994:1001   */\n      dup5\n        /* \"#utility.yul\":985:991   */\n      dup3\n        /* \"#utility.yul\":974:983   */\n      dup6\n        /* \"#utility.yul\":970:992   */\n      add\n        /* \"#utility.yul\":949:1002   */\n      tag_44\n      jump\t// in\n    tag_92:\n        /* \"#utility.yul\":939:1002   */\n      swap2\n      pop\n        /* \"#utility.yul\":895:1012   */\n      pop\n        /* \"#utility.yul\":690:1019   */\n      swap3\n      swap2\n      pop\n      pop\n      jump\t// out\n        /* \"#utility.yul\":1025:1124   */\n    tag_45:\n        /* \"#utility.yul\":1077:1083   */\n      0x00\n        /* \"#utility.yul\":1111:1116   */\n      dup2\n        /* \"#utility.yul\":1105:1117   */\n      mload\n        /* \"#utility.yul\":1095:1117   */\n      swap1\n      pop\n        /* \"#utility.yul\":1025:1124   */\n      swap2\n      swap1\n      pop\n      jump\t// out\n        /* \"#utility.yul\":1130:1299   */\n    tag_46:\n        /* \"#utility.yul\":1214:1225   */\n      0x00\n        /* \"#utility.yul\":1248:1254   */\n      dup3\n        /* \"#utility.yul\":1243:1246   */\n      dup3\n        /* \"#utility.yul\":1236:1255   */\n      mstore\n        /* \"#utility.yul\":1288:1292   */\n      0x20\n        /* \"#utility.yul\":1283:1286   */\n      dup3\n        /* \"#utility.yul\":1279:1293   */\n      add\n        /* \"#utility.yul\":1264:1293   */\n      swap1\n      pop\n        /* \"#utility.yul\":1130:1299   */\n      swap3\n      swap2\n      pop\n      pop\n      jump\t// out\n        /* \"#utility.yul\":1305:1444   */\n    tag_47:\n        /* \"#utility.yul\":1394:1400   */\n      dup3\n        /* \"#utility.yul\":1389:1392   */\n      dup2\n        /* \"#utility.yul\":1384:1387   */\n      dup4\n        /* \"#utility.yul\":1378:1401   */\n      mcopy\n        /* \"#utility.yul\":1435:1436   */\n      0x00\n        /* \"#utility.yul\":1426:1432   */\n      dup4\n        /* \"#utility.yul\":1421:1424   */\n      dup4\n        /* \"#utility.yul\":1417:1433   */\n      add\n        /* \"#utility.yul\":1410:1437   */\n      mstore\n        /* \"#utility.yul\":1305:1444   */\n      pop\n      pop\n      pop\n      jump\t// out\n        /* \"#utility.yul\":1450:1552   */\n    tag_48:\n        /* \"#utility.yul\":1491:1497   */\n      0x00\n        /* \"#utility.yul\":1542:1544   */\n      0x1f\n        /* \"#utility.yul\":1538:1545   */\n      not\n        /* \"#utility.yul\":1533:1535   */\n      0x1f\n        /* \"#utility.yul\":1526:1531   */\n      dup4\n        /* \"#utility.yul\":1522:1536   */\n      add\n        /* \"#utility.yul\":1518:1546   */\n      and\n        /* \"#utility.yul\":1508:1546   */\n      swap1\n      pop\n        /* \"#utility.yul\":1450:1552   */\n      swap2\n      swap1\n      pop\n      jump\t// out\n        /* \"#utility.yul\":1558:1935   */\n    tag_49:\n        /* \"#utility.yul\":1646:1649   */\n      0x00\n        /* \"#utility.yul\":1674:1713   */\n      tag_98\n        /* \"#utility.yul\":1707:1712   */\n      dup3\n        /* \"#utility.yul\":1674:1713   */\n      tag_45\n      jump\t// in\n    tag_98:\n        /* \"#utility.yul\":1729:1800   */\n      tag_99\n        /* \"#utility.yul\":1793:1799   */\n      dup2\n        /* \"#utility.yul\":1788:1791   */\n      dup6\n        /* \"#utility.yul\":1729:1800   */\n      tag_46\n      jump\t// in\n    tag_99:\n        /* \"#utility.yul\":1722:1800   */\n      swap4\n      pop\n        /* \"#utility.yul\":1809:1874   */\n      tag_100\n        /* \"#utility.yul\":1867:1873   */\n      dup2\n        /* \"#utility.yul\":1862:1865   */\n      dup6\n        /* \"#utility.yul\":1855:1859   */\n      0x20\n        /* \"#utility.yul\":1848:1853   */\n      dup7\n        /* \"#utility.yul\":1844:1860   */\n      add\n        /* \"#utility.yul\":1809:1874   */\n      tag_47\n      jump\t// in\n    tag_100:\n        /* \"#utility.yul\":1899:1928   */\n      tag_101\n        /* \"#utility.yul\":1921:1927   */\n      dup2\n        /* \"#utility.yul\":1899:1928   */\n      tag_48\n      jump\t// in\n    tag_101:\n        /* \"#utility.yul\":1894:1897   */\n      dup5\n        /* \"#utility.yul\":1890:1929   */\n      add\n        /* \"#utility.yul\":1883:1929   */\n      swap2\n      pop\n        /* \"#utility.yul\":1650:1935   */\n      pop\n        /* \"#utility.yul\":1558:1935   */\n      swap3\n      swap2\n      pop\n      pop\n      jump\t// out\n        /* \"#utility.yul\":1941:2059   */\n    tag_50:\n        /* \"#utility.yul\":2028:2052   */\n      tag_103\n        /* \"#utility.yul\":2046:2051   */\n      dup2\n        /* \"#utility.yul\":2028:2052   */\n      tag_42\n      jump\t// in\n    tag_103:\n        /* \"#utility.yul\":2023:2026   */\n      dup3\n        /* \"#utility.yul\":2016:2053   */\n      mstore\n        /* \"#utility.yul\":1941:2059   */\n      pop\n      pop\n      jump\t// out\n        /* \"#utility.yul\":2065:2488   */\n    tag_10:\n        /* \"#utility.yul\":2206:2210   */\n      0x00\n        /* \"#utility.yul\":2244:2246   */\n      0x40\n        /* \"#utility.yul\":2233:2242   */\n      dup3\n        /* \"#utility.yul\":2229:2247   */\n      add\n        /* \"#utility.yul\":2221:2247   */\n      swap1\n      pop\n        /* \"#utility.yul\":2293:2302   */\n      dup2\n        /* \"#utility.yul\":2287:2291   */\n      dup2\n        /* \"#utility.yul\":2283:2303   */\n      sub\n        /* \"#utility.yul\":2279:2280   */\n      0x00\n        /* \"#utility.yul\":2268:2277   */\n      dup4\n        /* \"#utility.yul\":2264:2281   */\n      add\n        /* \"#utility.yul\":2257:2304   */\n      mstore\n        /* \"#utility.yul\":2321:2399   */\n      tag_105\n        /* \"#utility.yul\":2394:2398   */\n      dup2\n        /* \"#utility.yul\":2385:2391   */\n      dup6\n        /* \"#utility.yul\":2321:2399   */\n      tag_49\n      jump\t// in\n    tag_105:\n        /* \"#utility.yul\":2313:2399   */\n      swap1\n      pop\n        /* \"#utility.yul\":2409:2481   */\n      tag_106\n        /* \"#utility.yul\":2477:2479   */\n      0x20\n        /* \"#utility.yul\":2466:2475   */\n      dup4\n        /* \"#utility.yul\":2462:2480   */\n      add\n        /* \"#utility.yul\":2453:2459   */\n      dup5\n        /* \"#utility.yul\":2409:2481   */\n      tag_50\n      jump\t// in\n    tag_106:\n        /* \"#utility.yul\":2065:2488   */\n      swap4\n      swap3\n      pop\n      pop\n      pop\n      jump\t// out\n        /* \"#utility.yul\":2494:2611   */\n    tag_51:\n        /* \"#utility.yul\":2603:2604   */\n      0x00\n        /* \"#utility.yul\":2600:2601   */\n      dup1\n        /* \"#utility.yul\":2593:2605   */\n      revert\n        /* \"#utility.yul\":2617:2734   */\n    tag_52:\n        /* \"#utility.yul\":2726:2727   */\n      0x00\n        /* \"#utility.yul\":2723:2724   */\n      dup1\n        /* \"#utility.yul\":2716:2728   */\n      revert\n        /* \"#utility.yul\":2740:2920   */\n    tag_53:\n        /* \"#utility.yul\":2788:2865   */\n      0x4e487b7100000000000000000000000000000000000000000000000000000000\n        /* \"#utility.yul\":2785:2786   */\n      0x00\n        /* \"#utility.yul\":2778:2866   */\n      mstore\n        /* \"#utility.yul\":2885:2889   */\n      0x41\n        /* \"#utility.yul\":2882:2883   */\n      0x04\n        /* \"#utility.yul\":2875:2890   */\n      mstore\n        /* \"#utility.yul\":2909:2913   */\n      0x24\n        /* \"#utility.yul\":2906:2907   */\n      0x00\n        /* \"#utility.yul\":2899:2914   */\n      revert\n        /* \"#utility.yul\":2926:3207   */\n    tag_54:\n        /* \"#utility.yul\":3009:3036   */\n      tag_111\n        /* \"#utility.yul\":3031:3035   */\n      dup3\n        /* \"#utility.yul\":3009:3036   */\n      tag_48\n      jump\t// in\n    tag_111:\n        /* \"#utility.yul\":3001:3007   */\n      dup2\n        /* \"#utility.yul\":2997:3037   */\n      add\n        /* \"#utility.yul\":3139:3145   */\n      dup2\n        /* \"#utility.yul\":3127:3137   */\n      dup2\n        /* \"#utility.yul\":3124:3146   */\n      lt\n        /* \"#utility.yul\":3103:3121   */\n      0xffffffffffffffff\n        /* \"#utility.yul\":3091:3101   */\n      dup3\n        /* \"#utility.yul\":3088:3122   */\n      gt\n        /* \"#utility.yul\":3085:3147   */\n      or\n        /* \"#utility.yul\":3082:3170   */\n      iszero\n      tag_112\n      jumpi\n        /* \"#utility.yul\":3150:3168   */\n      tag_113\n      tag_53\n      jump\t// in\n    tag_113:\n        /* \"#utility.yul\":3082:3170   */\n    tag_112:\n        /* \"#utility.yul\":3190:3200   */\n      dup1\n        /* \"#utility.yul\":3186:3188   */\n      0x40\n        /* \"#utility.yul\":3179:3201   */\n      mstore\n        /* \"#utility.yul\":2969:3207   */\n      pop\n        /* \"#utility.yul\":2926:3207   */\n      pop\n      pop\n      jump\t// out\n        /* \"#utility.yul\":3213:3342   */\n    tag_55:\n        /* \"#utility.yul\":3247:3253   */\n      0x00\n        /* \"#utility.yul\":3274:3294   */\n      tag_115\n      tag_39\n      jump\t// in\n    tag_115:\n        /* \"#utility.yul\":3264:3294   */\n      swap1\n      pop\n        /* \"#utility.yul\":3303:3336   */\n      tag_116\n        /* \"#utility.yul\":3331:3335   */\n      dup3\n        /* \"#utility.yul\":3323:3329   */\n      dup3\n        /* \"#utility.yul\":3303:3336   */\n      tag_54\n      jump\t// in\n    tag_116:\n        /* \"#utility.yul\":3213:3342   */\n      swap2\n      swap1\n      pop\n      jump\t// out\n        /* \"#utility.yul\":3348:3656   */\n    tag_56:\n        /* \"#utility.yul\":3410:3414   */\n      0x00\n        /* \"#utility.yul\":3500:3518   */\n      0xffffffffffffffff\n        /* \"#utility.yul\":3492:3498   */\n      dup3\n        /* \"#utility.yul\":3489:3519   */\n      gt\n        /* \"#utility.yul\":3486:3542   */\n      iszero\n      tag_118\n      jumpi\n        /* \"#utility.yul\":3522:3540   */\n      tag_119\n      tag_53\n      jump\t// in\n    tag_119:\n        /* \"#utility.yul\":3486:3542   */\n    tag_118:\n        /* \"#utility.yul\":3560:3589   */\n      tag_120\n        /* \"#utility.yul\":3582:3588   */\n      dup3\n        /* \"#utility.yul\":3560:3589   */\n      tag_48\n      jump\t// in\n    tag_120:\n        /* \"#utility.yul\":3552:3589   */\n      swap1\n      pop\n        /* \"#utility.yul\":3644:3648   */\n      0x20\n        /* \"#utility.yul\":3638:3642   */\n      dup2\n        /* \"#utility.yul\":3634:3649   */\n      add\n        /* \"#utility.yul\":3626:3649   */\n      swap1\n      pop\n        /* \"#utility.yul\":3348:3656   */\n      swap2\n      swap1\n      pop\n      jump\t// out\n        /* \"#utility.yul\":3662:3810   */\n    tag_57:\n        /* \"#utility.yul\":3760:3766   */\n      dup3\n        /* \"#utility.yul\":3755:3758   */\n      dup2\n        /* \"#utility.yul\":3750:3753   */\n      dup4\n        /* \"#utility.yul\":3737:3767   */\n      calldatacopy\n        /* \"#utility.yul\":3801:3802   */\n      0x00\n        /* \"#utility.yul\":3792:3798   */\n      dup4\n        /* \"#utility.yul\":3787:3790   */\n      dup4\n        /* \"#utility.yul\":3783:3799   */\n      add\n        /* \"#utility.yul\":3776:3803   */\n      mstore\n        /* \"#utility.yul\":3662:3810   */\n      pop\n      pop\n      pop\n      jump\t// out\n        /* \"#utility.yul\":3816:4241   */\n    tag_58:\n        /* \"#utility.yul\":3894:3899   */\n      0x00\n        /* \"#utility.yul\":3919:3985   */\n      tag_123\n        /* \"#utility.yul\":3935:3984   */\n      tag_124\n        /* \"#utility.yul\":3977:3983   */\n      dup5\n        /* \"#utility.yul\":3935:3984   */\n      tag_56\n      jump\t// in\n    tag_124:\n        /* \"#utility.yul\":3919:3985   */\n      tag_55\n      jump\t// in\n    tag_123:\n        /* \"#utility.yul\":3910:3985   */\n      swap1\n      pop\n        /* \"#utility.yul\":4008:4014   */\n      dup3\n        /* \"#utility.yul\":4001:4006   */\n      dup2\n        /* \"#utility.yul\":3994:4015   */\n      mstore\n        /* \"#utility.yul\":4046:4050   */\n      0x20\n        /* \"#utility.yul\":4039:4044   */\n      dup2\n        /* \"#utility.yul\":4035:4051   */\n      add\n        /* \"#utility.yul\":4084:4087   */\n      dup5\n        /* \"#utility.yul\":4075:4081   */\n      dup5\n        /* \"#utility.yul\":4070:4073   */\n      dup5\n        /* \"#utility.yul\":4066:4082   */\n      add\n        /* \"#utility.yul\":4063:4088   */\n      gt\n        /* \"#utility.yul\":4060:4172   */\n      iszero\n      tag_125\n      jumpi\n        /* \"#utility.yul\":4091:4170   */\n      tag_126\n      tag_52\n      jump\t// in\n    tag_126:\n        /* \"#utility.yul\":4060:4172   */\n    tag_125:\n        /* \"#utility.yul\":4181:4235   */\n      tag_127\n        /* \"#utility.yul\":4228:4234   */\n      dup5\n        /* \"#utility.yul\":4223:4226   */\n      dup3\n        /* \"#utility.yul\":4218:4221   */\n      dup6\n        /* \"#utility.yul\":4181:4235   */\n      tag_57\n      jump\t// in\n    tag_127:\n        /* \"#utility.yul\":3900:4241   */\n      pop\n        /* \"#utility.yul\":3816:4241   */\n      swap4\n      swap3\n      pop\n      pop\n      pop\n      jump\t// out\n        /* \"#utility.yul\":4261:4601   */\n    tag_59:\n        /* \"#utility.yul\":4317:4322   */\n      0x00\n        /* \"#utility.yul\":4366:4369   */\n      dup3\n        /* \"#utility.yul\":4359:4363   */\n      0x1f\n        /* \"#utility.yul\":4351:4357   */\n      dup4\n        /* \"#utility.yul\":4347:4364   */\n      add\n        /* \"#utility.yul\":4343:4370   */\n      slt\n        /* \"#utility.yul\":4333:4455   */\n      tag_129\n      jumpi\n        /* \"#utility.yul\":4374:4453   */\n      tag_130\n      tag_51\n      jump\t// in\n    tag_130:\n        /* \"#utility.yul\":4333:4455   */\n    tag_129:\n        /* \"#utility.yul\":4491:4497   */\n      dup2\n        /* \"#utility.yul\":4478:4498   */\n      calldataload\n        /* \"#utility.yul\":4516:4595   */\n      tag_131\n        /* \"#utility.yul\":4591:4594   */\n      dup5\n        /* \"#utility.yul\":4583:4589   */\n      dup3\n        /* \"#utility.yul\":4576:4580   */\n      0x20\n        /* \"#utility.yul\":4568:4574   */\n      dup7\n        /* \"#utility.yul\":4564:4581   */\n      add\n        /* \"#utility.yul\":4516:4595   */\n      tag_58\n      jump\t// in\n    tag_131:\n        /* \"#utility.yul\":4507:4595   */\n      swap2\n      pop\n        /* \"#utility.yul\":4323:4601   */\n      pop\n        /* \"#utility.yul\":4261:4601   */\n      swap3\n      swap2\n      pop\n      pop\n      jump\t// out\n        /* \"#utility.yul\":4607:5116   */\n    tag_13:\n        /* \"#utility.yul\":4676:4682   */\n      0x00\n        /* \"#utility.yul\":4725:4727   */\n      0x20\n        /* \"#utility.yul\":4713:4722   */\n      dup3\n        /* \"#utility.yul\":4704:4711   */\n      dup5\n        /* \"#utility.yul\":4700:4723   */\n      sub\n        /* \"#utility.yul\":4696:4728   */\n      slt\n        /* \"#utility.yul\":4693:4812   */\n      iszero\n      tag_133\n      jumpi\n        /* \"#utility.yul\":4731:4810   */\n      tag_134\n      tag_40\n      jump\t// in\n    tag_134:\n        /* \"#utility.yul\":4693:4812   */\n    tag_133:\n        /* \"#utility.yul\":4879:4880   */\n      0x00\n        /* \"#utility.yul\":4868:4877   */\n      dup3\n        /* \"#utility.yul\":4864:4881   */\n      add\n        /* \"#utility.yul\":4851:4882   */\n      calldataload\n        /* \"#utility.yul\":4909:4927   */\n      0xffffffffffffffff\n        /* \"#utility.yul\":4901:4907   */\n      dup2\n        /* \"#utility.yul\":4898:4928   */\n      gt\n        /* \"#utility.yul\":4895:5012   */\n      iszero\n      tag_135\n      jumpi\n        /* \"#utility.yul\":4931:5010   */\n      tag_136\n      tag_41\n      jump\t// in\n    tag_136:\n        /* \"#utility.yul\":4895:5012   */\n    tag_135:\n        /* \"#utility.yul\":5036:5099   */\n      tag_137\n        /* \"#utility.yul\":5091:5098   */\n      dup5\n        /* \"#utility.yul\":5082:5088   */\n      dup3\n        /* \"#utility.yul\":5071:5080   */\n      dup6\n        /* \"#utility.yul\":5067:5089   */\n      add\n        /* \"#utility.yul\":5036:5099   */\n      tag_59\n      jump\t// in\n    tag_137:\n        /* \"#utility.yul\":5026:5099   */\n      swap2\n      pop\n        /* \"#utility.yul\":4822:5109   */\n      pop\n        /* \"#utility.yul\":4607:5116   */\n      swap3\n      swap2\n      pop\n      pop\n      jump\t// out\n        /* \"#utility.yul\":5122:5302   */\n    tag_60:\n        /* \"#utility.yul\":5170:5247   */\n      0x4e487b7100000000000000000000000000000000000000000000000000000000\n        /* \"#utility.yul\":5167:5168   */\n      0x00\n        /* \"#utility.yul\":5160:5248   */\n      mstore\n        /* \"#utility.yul\":5267:5271   */\n      0x22\n        /* \"#utility.yul\":5264:5265   */\n      0x04\n        /* \"#utility.yul\":5257:5272   */\n      mstore\n        /* \"#utility.yul\":5291:5295   */\n      0x24\n        /* \"#utility.yul\":5288:5289   */\n      0x00\n        /* \"#utility.yul\":5281:5296   */\n      revert\n        /* \"#utility.yul\":5308:5628   */\n    tag_18:\n        /* \"#utility.yul\":5352:5358   */\n      0x00\n        /* \"#utility.yul\":5389:5390   */\n      0x02\n        /* \"#utility.yul\":5383:5387   */\n      dup3\n        /* \"#utility.yul\":5379:5391   */\n      div\n        /* \"#utility.yul\":5369:5391   */\n      swap1\n      pop\n        /* \"#utility.yul\":5436:5437   */\n      0x01\n        /* \"#utility.yul\":5430:5434   */\n      dup3\n        /* \"#utility.yul\":5426:5438   */\n      and\n        /* \"#utility.yul\":5457:5475   */\n      dup1\n        /* \"#utility.yul\":5447:5528   */\n      tag_140\n      jumpi\n        /* \"#utility.yul\":5513:5517   */\n      0x7f\n        /* \"#utility.yul\":5505:5511   */\n      dup3\n        /* \"#utility.yul\":5501:5518   */\n      and\n        /* \"#utility.yul\":5491:5518   */\n      swap2\n      pop\n        /* \"#utility.yul\":5447:5528   */\n    tag_140:\n        /* \"#utility.yul\":5575:5577   */\n      0x20\n        /* \"#utility.yul\":5567:5573   */\n      dup3\n        /* \"#utility.yul\":5564:5578   */\n      lt\n        /* \"#utility.yul\":5544:5562   */\n      dup2\n        /* \"#utility.yul\":5541:5579   */\n      sub\n        /* \"#utility.yul\":5538:5622   */\n      tag_141\n      jumpi\n        /* \"#utility.yul\":5594:5612   */\n      tag_142\n      tag_60\n      jump\t// in\n    tag_142:\n        /* \"#utility.yul\":5538:5622   */\n    tag_141:\n        /* \"#utility.yul\":5359:5628   */\n      pop\n        /* \"#utility.yul\":5308:5628   */\n      swap2\n      swap1\n      pop\n      jump\t// out\n        /* \"#utility.yul\":5634:5782   */\n    tag_61:\n        /* \"#utility.yul\":5736:5747   */\n      0x00\n        /* \"#utility.yul\":5773:5776   */\n      dup2\n        /* \"#utility.yul\":5758:5776   */\n      swap1\n      pop\n        /* \"#utility.yul\":5634:5782   */\n      swap3\n      swap2\n      pop\n      pop\n      jump\t// out\n        /* \"#utility.yul\":5788:6178   */\n    tag_62:\n        /* \"#utility.yul\":5894:5897   */\n      0x00\n        /* \"#utility.yul\":5922:5961   */\n      tag_145\n        /* \"#utility.yul\":5955:5960   */\n      dup3\n        /* \"#utility.yul\":5922:5961   */\n      tag_45\n      jump\t// in\n    tag_145:\n        /* \"#utility.yul\":5977:6066   */\n      tag_146\n        /* \"#utility.yul\":6059:6065   */\n      dup2\n        /* \"#utility.yul\":6054:6057   */\n      dup6\n        /* \"#utility.yul\":5977:6066   */\n      tag_61\n      jump\t// in\n    tag_146:\n        /* \"#utility.yul\":5970:6066   */\n      swap4\n      pop\n        /* \"#utility.yul\":6075:6140   */\n      tag_147\n        /* \"#utility.yul\":6133:6139   */\n      dup2\n        /* \"#utility.yul\":6128:6131   */\n      dup6\n        /* \"#utility.yul\":6121:6125   */\n      0x20\n        /* \"#utility.yul\":6114:6119   */\n      dup7\n        /* \"#utility.yul\":6110:6126   */\n      add\n        /* \"#utility.yul\":6075:6140   */\n      tag_47\n      jump\t// in\n    tag_147:\n        /* \"#utility.yul\":6165:6171   */\n      dup1\n        /* \"#utility.yul\":6160:6163   */\n      dup5\n        /* \"#utility.yul\":6156:6172   */\n      add\n        /* \"#utility.yul\":6149:6172   */\n      swap2\n      pop\n        /* \"#utility.yul\":5898:6178   */\n      pop\n        /* \"#utility.yul\":5788:6178   */\n      swap3\n      swap2\n      pop\n      pop\n      jump\t// out\n        /* \"#utility.yul\":6184:6459   */\n    tag_30:\n        /* \"#utility.yul\":6316:6319   */\n      0x00\n        /* \"#utility.yul\":6338:6433   */\n      tag_149\n        /* \"#utility.yul\":6429:6432   */\n      dup3\n        /* \"#utility.yul\":6420:6426   */\n      dup5\n        /* \"#utility.yul\":6338:6433   */\n      tag_62\n      jump\t// in\n    tag_149:\n        /* \"#utility.yul\":6331:6433   */\n      swap2\n      pop\n        /* \"#utility.yul\":6450:6453   */\n      dup2\n        /* \"#utility.yul\":6443:6453   */\n      swap1\n      pop\n        /* \"#utility.yul\":6184:6459   */\n      swap3\n      swap2\n      pop\n      pop\n      jump\t// out\n        /* \"#utility.yul\":6465:6645   */\n    tag_63:\n        /* \"#utility.yul\":6513:6590   */\n      0x4e487b7100000000000000000000000000000000000000000000000000000000\n        /* \"#utility.yul\":6510:6511   */\n      0x00\n        /* \"#utility.yul\":6503:6591   */\n      mstore\n        /* \"#utility.yul\":6610:6614   */\n      0x12\n        /* \"#utility.yul\":6607:6608   */\n      0x04\n        /* \"#utility.yul\":6600:6615   */\n      mstore\n        /* \"#utility.yul\":6634:6638   */\n      0x24\n        /* \"#utility.yul\":6631:6632   */\n      0x00\n        /* \"#utility.yul\":6624:6639   */\n      revert\n        /* \"#utility.yul\":6651:6827   */\n    tag_32:\n        /* \"#utility.yul\":6683:6684   */\n      0x00\n        /* \"#utility.yul\":6700:6720   */\n      tag_152\n        /* \"#utility.yul\":6718:6719   */\n      dup3\n        /* \"#utility.yul\":6700:6720   */\n      tag_42\n      jump\t// in\n    tag_152:\n        /* \"#utility.yul\":6695:6720   */\n      swap2\n      pop\n        /* \"#utility.yul\":6734:6754   */\n      tag_153\n        /* \"#utility.yul\":6752:6753   */\n      dup4\n        /* \"#utility.yul\":6734:6754   */\n      tag_42\n      jump\t// in\n    tag_153:\n        /* \"#utility.yul\":6729:6754   */\n      swap3\n      pop\n        /* \"#utility.yul\":6773:6774   */\n      dup3\n        /* \"#utility.yul\":6763:6798   */\n      tag_154\n      jumpi\n        /* \"#utility.yul\":6778:6796   */\n      tag_155\n      tag_63\n      jump\t// in\n    tag_155:\n        /* \"#utility.yul\":6763:6798   */\n    tag_154:\n        /* \"#utility.yul\":6819:6820   */\n      dup3\n        /* \"#utility.yul\":6816:6817   */\n      dup3\n        /* \"#utility.yul\":6812:6821   */\n      mod\n        /* \"#utility.yul\":6807:6821   */\n      swap1\n      pop\n        /* \"#utility.yul\":6651:6827   */\n      swap3\n      swap2\n      pop\n      pop\n      jump\t// out\n        /* \"#utility.yul\":6833:6974   */\n    tag_64:\n        /* \"#utility.yul\":6882:6886   */\n      0x00\n        /* \"#utility.yul\":6905:6908   */\n      dup2\n        /* \"#utility.yul\":6897:6908   */\n      swap1\n      pop\n        /* \"#utility.yul\":6928:6931   */\n      dup2\n        /* \"#utility.yul\":6925:6926   */\n      0x00\n        /* \"#utility.yul\":6918:6932   */\n      mstore\n        /* \"#utility.yul\":6962:6966   */\n      0x20\n        /* \"#utility.yul\":6959:6960   */\n      0x00\n        /* \"#utility.yul\":6949:6967   */\n      keccak256\n        /* \"#utility.yul\":6941:6967   */\n      swap1\n      pop\n        /* \"#utility.yul\":6833:6974   */\n      swap2\n      swap1\n      pop\n      jump\t// out\n        /* \"#utility.yul\":6980:7073   */\n    tag_65:\n        /* \"#utility.yul\":7017:7023   */\n      0x00\n        /* \"#utility.yul\":7064:7066   */\n      0x20\n        /* \"#utility.yul\":7059:7061   */\n      0x1f\n        /* \"#utility.yul\":7052:7057   */\n      dup4\n        /* \"#utility.yul\":7048:7062   */\n      add\n        /* \"#utility.yul\":7044:7067   */\n      div\n        /* \"#utility.yul\":7034:7067   */\n      swap1\n      pop\n        /* \"#utility.yul\":6980:7073   */\n      swap2\n      swap1\n      pop\n      jump\t// out\n        /* \"#utility.yul\":7079:7186   */\n    tag_66:\n        /* \"#utility.yul\":7123:7131   */\n      0x00\n        /* \"#utility.yul\":7173:7178   */\n      dup3\n        /* \"#utility.yul\":7167:7171   */\n      dup3\n        /* \"#utility.yul\":7163:7179   */\n      shl\n        /* \"#utility.yul\":7142:7179   */\n      swap1\n      pop\n        /* \"#utility.yul\":7079:7186   */\n      swap3\n      swap2\n      pop\n      pop\n      jump\t// out\n        /* \"#utility.yul\":7192:7585   */\n    tag_67:\n        /* \"#utility.yul\":7261:7267   */\n      0x00\n        /* \"#utility.yul\":7311:7312   */\n      0x08\n        /* \"#utility.yul\":7299:7309   */\n      dup4\n        /* \"#utility.yul\":7295:7313   */\n      mul\n        /* \"#utility.yul\":7334:7431   */\n      tag_160\n        /* \"#utility.yul\":7364:7430   */\n      0xffffffffffffffffffffffffffffffffffffffffffffffffffffffffffffffff\n        /* \"#utility.yul\":7353:7362   */\n      dup3\n        /* \"#utility.yul\":7334:7431   */\n      tag_66\n      jump\t// in\n    tag_160:\n        /* \"#utility.yul\":7452:7491   */\n      tag_161\n        /* \"#utility.yul\":7482:7490   */\n      dup7\n        /* \"#utility.yul\":7471:7480   */\n      dup4\n        /* \"#utility.yul\":7452:7491   */\n      tag_66\n      jump\t// in\n    tag_161:\n        /* \"#utility.yul\":7440:7491   */\n      swap6\n      pop\n        /* \"#utility.yul\":7524:7528   */\n      dup1\n        /* \"#utility.yul\":7520:7529   */\n      not\n        /* \"#utility.yul\":7513:7518   */\n      dup5\n        /* \"#utility.yul\":7509:7530   */\n      and\n        /* \"#utility.yul\":7500:7530   */\n      swap4\n      pop\n        /* \"#utility.yul\":7573:7577   */\n      dup1\n        /* \"#utility.yul\":7563:7571   */\n      dup7\n        /* \"#utility.yul\":7559:7578   */\n      and\n        /* \"#utility.yul\":7552:7557   */\n      dup5\n        /* \"#utility.yul\":7549:7579   */\n      or\n        /* \"#utility.yul\":7539:7579   */\n      swap3\n      pop\n        /* \"#utility.yul\":7268:7585   */\n      pop\n      pop\n        /* \"#utility.yul\":7192:7585   */\n      swap4\n      swap3\n      pop\n      pop\n      pop\n      jump\t// out\n        /* \"#utility.yul\":7591:7651   */\n    tag_68:\n        /* \"#utility.yul\":7619:7622   */\n      0x00\n        /* \"#utility.yul\":7640:7645   */\n      dup2\n        /* \"#utility.yul\":7633:7645   */\n      swap1\n      pop\n        /* \"#utility.yul\":7591:7651   */\n      swap2\n      swap1\n      pop\n      jump\t// out\n        /* \"#utility.yul\":7657:7799   */\n    tag_69:\n        /* \"#utility.yul\":7707:7716   */\n      0x00\n        /* \"#utility.yul\":7740:7793   */\n      tag_164\n        /* \"#utility.yul\":7758:7792   */\n      tag_165\n        /* \"#utility.yul\":7767:7791   */\n      tag_166\n        /* \"#utility.yul\":7785:7790   */\n      dup5\n        /* \"#utility.yul\":7767:7791   */\n      tag_42\n      jump\t// in\n    tag_166:\n        /* \"#utility.yul\":7758:7792   */\n      tag_68\n      jump\t// in\n    tag_165:\n        /* \"#utility.yul\":7740:7793   */\n      tag_42\n      jump\t// in\n    tag_164:\n        /* \"#utility.yul\":7727:7793   */\n      swap1\n      pop\n        /* \"#utility.yul\":7657:7799   */\n      swap2\n      swap1\n      pop\n      jump\t// out\n        /* \"#utility.yul\":7805:7880   */\n    tag_70:\n        /* \"#utility.yul\":7848:7851   */\n      0x00\n        /* \"#utility.yul\":7869:7874   */\n      dup2\n        /* \"#utility.yul\":7862:7874   */\n      swap1\n      pop\n        /* \"#utility.yul\":7805:7880   */\n      swap2\n      swap1\n      pop\n      jump\t// out\n        /* \"#utility.yul\":7886:8155   */\n    tag_71:\n        /* \"#utility.yul\":7996:8035   */\n      tag_169\n        /* \"#utility.yul\":8027:8034   */\n      dup4\n        /* \"#utility.yul\":7996:8035   */\n      tag_69\n      jump\t// in\n    tag_169:\n        /* \"#utility.yul\":8057:8148   */\n      tag_170\n        /* \"#utility.yul\":8106:8147   */\n      tag_171\n        /* \"#utility.yul\":8130:8146   */\n      dup3\n        /* \"#utility.yul\":8106:8147   */\n      tag_70\n      jump\t// in\n    tag_171:\n        /* \"#utility.yul\":8098:8104   */\n      dup5\n        /* \"#utility.yul\":8091:8095   */\n      dup5\n        /* \"#utility.yul\":8085:8096   */\n      sload\n        /* \"#utility.yul\":8057:8148   */\n      tag_67\n      jump\t// in\n    tag_170:\n        /* \"#utility.yul\":8051:8055   */\n      dup3\n        /* \"#utility.yul\":8044:8149   */\n      sstore\n        /* \"#utility.yul\":7962:8155   */\n      pop\n        /* \"#utility.yul\":7886:8155   */\n      pop\n      pop\n      pop\n      jump\t// out\n        /* \"#utility.yul\":8161:8234   */\n    tag_72:\n        /* \"#utility.yul\":8206:8209   */\n      0x00\n        /* \"#utility.yul\":8161:8234   */\n      swap1\n      jump\t// out\n        /* \"#utility.yul\":8240:8429   */\n    tag_73:\n        /* \"#utility.yul\":8317:8349   */\n      tag_174\n      tag_72\n      jump\t// in\n    tag_174:\n        /* \"#utility.yul\":8358:8423   */\n      tag_175\n        /* \"#utility.yul\":8416:8422   */\n      dup2\n        /* \"#utility.yul\":8408:8414   */\n      dup5\n        /* \"#utility.yul\":8402:8406   */\n      dup5\n        /* \"#utility.yul\":8358:8423   */\n      tag_71\n      jump\t// in\n    tag_175:\n        /* \"#utility.yul\":8293:8429   */\n      pop\n        /* \"#utility.yul\":8240:8429   */\n      pop\n      pop\n      jump\t// out\n        /* \"#utility.yul\":8435:8621   */\n    tag_74:\n        /* \"#utility.yul\":8495:8615   */\n    tag_177:\n        /* \"#utility.yul\":8512:8515   */\n      dup2\n        /* \"#utility.yul\":8505:8510   */\n      dup2\n        /* \"#utility.yul\":8502:8516   */\n      lt\n        /* \"#utility.yul\":8495:8615   */\n      iszero\n      tag_179\n      jumpi\n        /* \"#utility.yul\":8566:8605   */\n      tag_180\n        /* \"#utility.yul\":8603:8604   */\n      0x00\n        /* \"#utility.yul\":8596:8601   */\n      dup3\n        /* \"#utility.yul\":8566:8605   */\n      tag_73\n      jump\t// in\n    tag_180:\n        /* \"#utility.yul\":8539:8540   */\n      0x01\n        /* \"#utility.yul\":8532:8537   */\n      dup2\n        /* \"#utility.yul\":8528:8541   */\n      add\n        /* \"#utility.yul\":8519:8541   */\n      swap1\n      pop\n        /* \"#utility.yul\":8495:8615   */\n      jump(tag_177)\n    tag_179:\n        /* \"#utility.yul\":8435:8621   */\n      pop\n      pop\n      jump\t// out\n        /* \"#utility.yul\":8627:9170   */\n    tag_75:\n        /* \"#utility.yul\":8728:8730   */\n      0x1f\n        /* \"#utility.yul\":8723:8726   */\n      dup3\n        /* \"#utility.yul\":8720:8731   */\n      gt\n        /* \"#utility.yul\":8717:9163   */\n      iszero\n      tag_182\n      jumpi\n        /* \"#utility.yul\":8762:8800   */\n      tag_183\n        /* \"#utility.yul\":8794:8799   */\n      dup2\n        /* \"#utility.yul\":8762:8800   */\n      tag_64\n      jump\t// in\n    tag_183:\n        /* \"#utility.yul\":8846:8875   */\n      tag_184\n        /* \"#utility.yul\":8864:8874   */\n      dup5\n        /* \"#utility.yul\":8846:8875   */\n      tag_65\n      jump\t// in\n    tag_184:\n        /* \"#utility.yul\":8836:8844   */\n      dup2\n        /* \"#utility.yul\":8832:8876   */\n      add\n        /* \"#utility.yul\":9029:9031   */\n      0x20\n        /* \"#utility.yul\":9017:9027   */\n      dup6\n        /* \"#utility.yul\":9014:9032   */\n      lt\n        /* \"#utility.yul\":9011:9060   */\n      iszero\n      tag_185\n      jumpi\n        /* \"#utility.yul\":9050:9058   */\n      dup2\n        /* \"#utility.yul\":9035:9058   */\n      swap1\n      pop\n        /* \"#utility.yul\":9011:9060   */\n    tag_185:\n        /* \"#utility.yul\":9073:9153   */\n      tag_186\n        /* \"#utility.yul\":9129:9151   */\n      tag_187\n        /* \"#utility.yul\":9147:9150   */\n      dup6\n        /* \"#utility.yul\":9129:9151   */\n      tag_65\n      jump\t// in\n    tag_187:\n        /* \"#utility.yul\":9119:9127   */\n      dup4\n        /* \"#utility.yul\":9115:9152   */\n      add\n        /* \"#utility.yul\":9102:9113   */\n      dup3\n        /* \"#utility.yul\":9073:9153   */\n      tag_74\n      jump\t// in\n    tag_186:\n        /* \"#utility.yul\":8732:9163   */\n      pop\n      pop\n        /* \"#utility.yul\":8717:9163   */\n    tag_182:\n        /* \"#utility.yul\":8627:9170   */\n      pop\n      pop\n      pop\n      jump\t// out\n        /* \"#utility.yul\":9176:9293   */\n    tag_76:\n        /* \"#utility.yul\":9230:9238   */\n      0x00\n        /* \"#utility.yul\":9280:9285   */\n      dup3\n        /* \"#utility.yul\":9274:9278   */\n      dup3\n        /* \"#utility.yul\":9270:9286   */\n      shr\n        /* \"#utility.yul\":9249:9286   */\n      swap1\n      pop\n        /* \"#utility.yul\":9176:9293   */\n      swap3\n      swap2\n      pop\n      pop\n      jump\t// out\n        /* \"#utility.yul\":9299:9468   */\n    tag_77:\n        /* \"#utility.yul\":9343:9349   */\n      0x00\n        /* \"#utility.yul\":9376:9427   */\n      tag_190\n        /* \"#utility.yul\":9424:9425   */\n      0x00\n        /* \"#utility.yul\":9420:9426   */\n      not\n        /* \"#utility.yul\":9412:9417   */\n      dup5\n        /* \"#utility.yul\":9409:9410   */\n      0x08\n        /* \"#utility.yul\":9405:9418   */\n      mul\n        /* \"#utility.yul\":9376:9427   */\n      tag_76\n      jump\t// in\n    tag_190:\n        /* \"#utility.yul\":9372:9428   */\n      not\n        /* \"#utility.yul\":9457:9461   */\n      dup1\n        /* \"#utility.yul\":9451:9455   */\n      dup4\n        /* \"#utility.yul\":9447:9462   */\n      and\n        /* \"#utility.yul\":9437:9462   */\n      swap2\n      pop\n        /* \"#utility.yul\":9350:9468   */\n      pop\n        /* \"#utility.yul\":9299:9468   */\n      swap3\n      swap2\n      pop\n      pop\n      jump\t// out\n        /* \"#utility.yul\":9473:9768   */\n    tag_78:\n        /* \"#utility.yul\":9549:9553   */\n      0x00\n        /* \"#utility.yul\":9695:9724   */\n      tag_192\n        /* \"#utility.yul\":9720:9723   */\n      dup4\n        /* \"#utility.yul\":9714:9718   */\n      dup4\n        /* \"#utility.yul\":9695:9724   */\n      tag_77\n      jump\t// in\n    tag_192:\n        /* \"#utility.yul\":9687:9724   */\n      swap2\n      pop\n        /* \"#utility.yul\":9757:9760   */\n      dup3\n        /* \"#utility.yul\":9754:9755   */\n      0x02\n        /* \"#utility.yul\":9750:9761   */\n      mul\n        /* \"#utility.yul\":9744:9748   */\n      dup3\n        /* \"#utility.yul\":9741:9762   */\n      or\n        /* \"#utility.yul\":9733:9762   */\n      swap1\n      pop\n        /* \"#utility.yul\":9473:9768   */\n      swap3\n      swap2\n      pop\n      pop\n      jump\t// out\n        /* \"#utility.yul\":9773:11168   */\n    tag_36:\n        /* \"#utility.yul\":9890:9927   */\n      tag_194\n        /* \"#utility.yul\":9923:9926   */\n      dup3\n        /* \"#utility.yul\":9890:9927   */\n      tag_45\n      jump\t// in\n    tag_194:\n        /* \"#utility.yul\":9992:10010   */\n      0xffffffffffffffff\n        /* \"#utility.yul\":9984:9990   */\n      dup2\n        /* \"#utility.yul\":9981:10011   */\n      gt\n        /* \"#utility.yul\":9978:10034   */\n      iszero\n      tag_195\n      jumpi\n        /* \"#utility.yul\":10014:10032   */\n      tag_196\n      tag_53\n      jump\t// in\n    tag_196:\n        /* \"#utility.yul\":9978:10034   */\n    tag_195:\n        /* \"#utility.yul\":10058:10096   */\n      tag_197\n        /* \"#utility.yul\":10090:10094   */\n      dup3\n        /* \"#utility.yul\":10084:10095   */\n      sload\n        /* \"#utility.yul\":10058:10096   */\n      tag_18\n      jump\t// in\n    tag_197:\n        /* \"#utility.yul\":10143:10210   */\n      tag_198\n        /* \"#utility.yul\":10203:10209   */\n      dup3\n        /* \"#utility.yul\":10195:10201   */\n      dup3\n        /* \"#utility.yul\":10189:10193   */\n      dup6\n        /* \"#utility.yul\":10143:10210   */\n      tag_75\n      jump\t// in\n    tag_198:\n        /* \"#utility.yul\":10237:10238   */\n      0x00\n        /* \"#utility.yul\":10261:10265   */\n      0x20\n        /* \"#utility.yul\":10248:10265   */\n      swap1\n      pop\n        /* \"#utility.yul\":10293:10295   */\n      0x1f\n        /* \"#utility.yul\":10285:10291   */\n      dup4\n        /* \"#utility.yul\":10282:10296   */\n      gt\n        /* \"#utility.yul\":10310:10311   */\n      0x01\n        /* \"#utility.yul\":10305:10923   */\n      dup2\n      eq\n      tag_200\n      jumpi\n        /* \"#utility.yul\":10967:10968   */\n      0x00\n        /* \"#utility.yul\":10984:10990   */\n      dup5\n        /* \"#utility.yul\":10981:11058   */\n      iszero\n      tag_201\n      jumpi\n        /* \"#utility.yul\":11033:11042   */\n      dup3\n        /* \"#utility.yul\":11028:11031   */\n      dup8\n        /* \"#utility.yul\":11024:11043   */\n      add\n        /* \"#utility.yul\":11018:11044   */\n      mload\n        /* \"#utility.yul\":11009:11044   */\n      swap1\n      pop\n        /* \"#utility.yul\":10981:11058   */\n    tag_201:\n        /* \"#utility.yul\":11084:11151   */\n      tag_202\n        /* \"#utility.yul\":11144:11150   */\n      dup6\n        /* \"#utility.yul\":11137:11142   */\n      dup3\n        /* \"#utility.yul\":11084:11151   */\n      tag_78\n      jump\t// in\n    tag_202:\n        /* \"#utility.yul\":11078:11082   */\n      dup7\n        /* \"#utility.yul\":11071:11152   */\n      sstore\n        /* \"#utility.yul\":10940:11162   */\n      pop\n        /* \"#utility.yul\":10275:11162   */\n      jump(tag_199)\n        /* \"#utility.yul\":10305:10923   */\n    tag_200:\n        /* \"#utility.yul\":10357:10361   */\n      0x1f\n        /* \"#utility.yul\":10353:10362   */\n      not\n        /* \"#utility.yul\":10345:10351   */\n      dup5\n        /* \"#utility.yul\":10341:10363   */\n      and\n        /* \"#utility.yul\":10391:10428   */\n      tag_203\n        /* \"#utility.yul\":10423:10427   */\n      dup7\n        /* \"#utility.yul\":10391:10428   */\n      tag_64\n      jump\t// in\n    tag_203:\n        /* \"#utility.yul\":10450:10451   */\n      0x00\n        /* \"#utility.yul\":10464:10672   */\n    tag_204:\n        /* \"#utility.yul\":10478:10485   */\n      dup3\n        /* \"#utility.yul\":10475:10476   */\n      dup2\n        /* \"#utility.yul\":10472:10486   */\n      lt\n        /* \"#utility.yul\":10464:10672   */\n      iszero\n      tag_206\n      jumpi\n        /* \"#utility.yul\":10557:10566   */\n      dup5\n        /* \"#utility.yul\":10552:10555   */\n      dup10\n        /* \"#utility.yul\":10548:10567   */\n      add\n        /* \"#utility.yul\":10542:10568   */\n      mload\n        /* \"#utility.yul\":10534:10540   */\n      dup3\n        /* \"#utility.yul\":10527:10569   */\n      sstore\n        /* \"#utility.yul\":10608:10609   */\n      0x01\n        /* \"#utility.yul\":10600:10606   */\n      dup3\n        /* \"#utility.yul\":10596:10610   */\n      add\n        /* \"#utility.yul\":10586:10610   */\n      swap2\n      pop\n        /* \"#utility.yul\":10655:10657   */\n      0x20\n        /* \"#utility.yul\":10644:10653   */\n      dup6\n        /* \"#utility.yul\":10640:10658   */\n      add\n        /* \"#utility.yul\":10627:10658   */\n      swap5\n      pop\n        /* \"#utility.yul\":10501:10505   */\n      0x20\n        /* \"#utility.yul\":10498:10499   */\n      dup2\n        /* \"#utility.yul\":10494:10506   */\n      add\n        /* \"#utility.yul\":10489:10506   */\n      swap1\n      pop\n        /* \"#utility.yul\":10464:10672   */\n      jump(tag_204)\n    tag_206:\n        /* \"#utility.yul\":10700:10706   */\n      dup7\n        /* \"#utility.yul\":10691:10698   */\n      dup4\n        /* \"#utility.yul\":10688:10707   */\n      lt\n        /* \"#utility.yul\":10685:10864   */\n      iszero\n      tag_207\n      jumpi\n        /* \"#utility.yul\":10758:10767   */\n      dup5\n        /* \"#utility.yul\":10753:10756   */\n      dup10\n        /* \"#utility.yul\":10749:10768   */\n      add\n        /* \"#utility.yul\":10743:10769   */\n      mload\n        /* \"#utility.yul\":10801:10849   */\n      tag_208\n        /* \"#utility.yul\":10843:10847   */\n      0x1f\n        /* \"#utility.yul\":10835:10841   */\n      dup10\n        /* \"#utility.yul\":10831:10848   */\n      and\n        /* \"#utility.yul\":10820:10829   */\n      dup3\n        /* \"#utility.yul\":10801:10849   */\n      tag_77\n      jump\t// in\n    tag_208:\n        /* \"#utility.yul\":10793:10799   */\n      dup4\n        /* \"#utility.yul\":10786:10850   */\n      sstore\n        /* \"#utility.yul\":10708:10864   */\n      pop\n        /* \"#utility.yul\":10685:10864   */\n    tag_207:\n        /* \"#utility.yul\":10910:10911   */\n      0x01\n        /* \"#utility.yul\":10906:10907   */\n      0x02\n        /* \"#utility.yul\":10898:10904   */\n      dup9\n        /* \"#utility.yul\":10894:10908   */\n      mul\n        /* \"#utility.yul\":10890:10912   */\n      add\n        /* \"#utility.yul\":10884:10888   */\n      dup9\n        /* \"#utility.yul\":10877:10913   */\n      sstore\n        /* \"#utility.yul\":10312:10923   */\n      pop\n      pop\n      pop\n        /* \"#utility.yul\":10275:11162   */\n    tag_199:\n      pop\n        /* \"#utility.yul\":9865:11168   */\n      pop\n      pop\n      pop\n        /* \"#utility.yul\":9773:11168   */\n      pop\n      pop\n      jump\t// out\n        /* \"#utility.yul\":11174:11707   */\n    tag_38:\n        /* \"#utility.yul\":11343:11347   */\n      0x00\n        /* \"#utility.yul\":11381:11383   */\n      0x60\n        /* \"#utility.yul\":11370:11379   */\n      dup3\n        /* \"#utility.yul\":11366:11384   */\n      add\n        /* \"#utility.yul\":11358:11384   */\n      swap1\n      pop\n        /* \"#utility.yul\":11394:11465   */\n      tag_210\n        /* \"#utility.yul\":11462:11463   */\n      0x00\n        /* \"#utility.yul\":11451:11460   */\n      dup4\n        /* \"#utility.yul\":11447:11464   */\n      add\n        /* \"#utility.yul\":11438:11444   */\n      dup7\n        /* \"#utility.yul\":11394:11465   */\n      tag_50\n      jump\t// in\n    tag_210:\n        /* \"#utility.yul\":11512:11521   */\n      dup2\n        /* \"#utility.yul\":11506:11510   */\n      dup2\n        /* \"#utility.yul\":11502:11522   */\n      sub\n        /* \"#utility.yul\":11497:11499   */\n      0x20\n        /* \"#utility.yul\":11486:11495   */\n      dup4\n        /* \"#utility.yul\":11482:11500   */\n      add\n        /* \"#utility.yul\":11475:11523   */\n      mstore\n        /* \"#utility.yul\":11540:11618   */\n      tag_211\n        /* \"#utility.yul\":11613:11617   */\n      dup2\n        /* \"#utility.yul\":11604:11610   */\n      dup6\n        /* \"#utility.yul\":11540:11618   */\n      tag_49\n      jump\t// in\n    tag_211:\n        /* \"#utility.yul\":11532:11618   */\n      swap1\n      pop\n        /* \"#utility.yul\":11628:11700   */\n      tag_212\n        /* \"#utility.yul\":11696:11698   */\n      0x40\n        /* \"#utility.yul\":11685:11694   */\n      dup4\n        /* \"#utility.yul\":11681:11699   */\n      add\n        /* \"#utility.yul\":11672:11678   */\n      dup5\n        /* \"#utility.yul\":11628:11700   */\n      tag_50\n      jump\t// in\n    tag_212:\n        /* \"#utility.yul\":11174:11707   */\n      swap5\n      swap4\n      pop\n      pop\n      pop\n      pop\n      jump\t// out\n\n    auxdata: 0xa26469706673582212203a2745f0e0c9db4238531b124358098dd4705b9d8d5a3776b7bd7bc35984125664736f6c634300081a0033\n}\n",
				"bytecode": {
					"linkReferences": {},
					"object": "608060405260105f555f54600a610016919061018f565b600155348015610024575f80fd5b506101d9565b7f4e487b71000000000000000000000000000000000000000000000000000000005f52601160045260245ffd5b5f8160011c9050919050565b5f808291508390505b60018511156100ac578086048111156100885761008761002a565b5b60018516156100975780820291505b80810290506100a585610057565b945061006c565b94509492505050565b5f826100c4576001905061017f565b816100d1575f905061017f565b81600181146100e757600281146100f157610120565b600191505061017f565b60ff8411156101035761010261002a565b5b8360020a91508482111561011a5761011961002a565b5b5061017f565b5060208310610133831016604e8410600b84101617156101555782820a9050838111156101505761014f61002a565b5b61017f565b6101628484846001610063565b925090508184048111156101795761017861002a565b5b81810290505b9392505050565b5f819050919050565b5f61019982610186565b91506101a483610186565b92506101d17fffffffffffffffffffffffffffffffffffffffffffffffffffffffffffffffff84846100b5565b905092915050565b6108b4806101e65f395ff3fe608060405234801561000f575f80fd5b5060043610610034575f3560e01c80632052465e146100385780637bff0a0114610069575b5f80fd5b610052600480360381019061004d9190610281565b610085565b60405161006092919061032b565b60405180910390f35b610083600480360381019061007e9190610485565b61013a565b005b60028181548110610094575f80fd5b905f5260205f2090600202015f91509050805f0180546100b3906104f9565b80601f01602080910402602001604051908101604052809291908181526020018280546100df906104f9565b801561012a5780601f106101015761010080835404028352916020019161012a565b820191905f5260205f20905b81548152906001019060200180831161010d57829003601f168201915b5050505050908060010154905082565b5f61014482610154565b90506101508282610197565b5050565b5f80826040516020016101679190610563565b604051602081830303815290604052805190602001205f1c90506001548161018f91906105a6565b915050919050565b5f60028054905090506002604051806040016040528085815260200184815250908060018154018082558091505060019003905f5260205f2090600202015f909190919091505f820151815f0190816101f09190610773565b506020820151816001015550507f88f026aacbbecc90c18411df4b1185fd8d9be2470f1962f192bf84a27d0704b781848460405161023093929190610842565b60405180910390a1505050565b5f604051905090565b5f80fd5b5f80fd5b5f819050919050565b6102608161024e565b811461026a575f80fd5b50565b5f8135905061027b81610257565b92915050565b5f6020828403121561029657610295610246565b5b5f6102a38482850161026d565b91505092915050565b5f81519050919050565b5f82825260208201905092915050565b8281835e5f83830152505050565b5f601f19601f8301169050919050565b5f6102ee826102ac565b6102f881856102b6565b93506103088185602086016102c6565b610311816102d4565b840191505092915050565b6103258161024e565b82525050565b5f6040820190508181035f83015261034381856102e4565b9050610352602083018461031c565b9392505050565b5f80fd5b5f80fd5b7f4e487b71000000000000000000000000000000000000000000000000000000005f52604160045260245ffd5b610397826102d4565b810181811067ffffffffffffffff821117156103b6576103b5610361565b5b80604052505050565b5f6103c861023d565b90506103d4828261038e565b919050565b5f67ffffffffffffffff8211156103f3576103f2610361565b5b6103fc826102d4565b9050602081019050919050565b828183375f83830152505050565b5f610429610424846103d9565b6103bf565b9050828152602081018484840111156104455761044461035d565b5b610450848285610409565b509392505050565b5f82601f83011261046c5761046b610359565b5b813561047c848260208601610417565b91505092915050565b5f6020828403121561049a57610499610246565b5b5f82013567ffffffffffffffff8111156104b7576104b661024a565b5b6104c384828501610458565b91505092915050565b7f4e487b71000000000000000000000000000000000000000000000000000000005f52602260045260245ffd5b5f600282049050600182168061051057607f821691505b602082108103610523576105226104cc565b5b50919050565b5f81905092915050565b5f61053d826102ac565b6105478185610529565b93506105578185602086016102c6565b80840191505092915050565b5f61056e8284610533565b915081905092915050565b7f4e487b71000000000000000000000000000000000000000000000000000000005f52601260045260245ffd5b5f6105b08261024e565b91506105bb8361024e565b9250826105cb576105ca610579565b5b828206905092915050565b5f819050815f5260205f209050919050565b5f6020601f8301049050919050565b5f82821b905092915050565b5f600883026106327fffffffffffffffffffffffffffffffffffffffffffffffffffffffffffffffff826105f7565b61063c86836105f7565b95508019841693508086168417925050509392505050565b5f819050919050565b5f61067761067261066d8461024e565b610654565b61024e565b9050919050565b5f819050919050565b6106908361065d565b6106a461069c8261067e565b848454610603565b825550505050565b5f90565b6106b86106ac565b6106c3818484610687565b505050565b5b818110156106e6576106db5f826106b0565b6001810190506106c9565b5050565b601f82111561072b576106fc816105d6565b610705846105e8565b81016020851015610714578190505b610728610720856105e8565b8301826106c8565b50505b505050565b5f82821c905092915050565b5f61074b5f1984600802610730565b1980831691505092915050565b5f610763838361073c565b9150826002028217905092915050565b61077c826102ac565b67ffffffffffffffff81111561079557610794610361565b5b61079f82546104f9565b6107aa8282856106ea565b5f60209050601f8311600181146107db575f84156107c9578287015190505b6107d38582610758565b86555061083a565b601f1984166107e9866105d6565b5f5b82811015610810578489015182556001820191506020850194506020810190506107eb565b8683101561082d5784890151610829601f89168261073c565b8355505b6001600288020188555050505b505050505050565b5f6060820190506108555f83018661031c565b818103602083015261086781856102e4565b9050610876604083018461031c565b94935050505056fea26469706673582212203a2745f0e0c9db4238531b124358098dd4705b9d8d5a3776b7bd7bc35984125664736f6c634300081a0033",
					"opcodes": "PUSH1 0x80 PUSH1 0x40 MSTORE PUSH1 0x10 PUSH0 SSTORE PUSH0 SLOAD PUSH1 0xA PUSH2 0x16 SWAP2 SWAP1 PUSH2 0x18F JUMP JUMPDEST PUSH1 0x1 SSTORE CALLVALUE DUP1 ISZERO PUSH2 0x24 JUMPI PUSH0 DUP1 REVERT JUMPDEST POP PUSH2 0x1D9 JUMP JUMPDEST PUSH32 0x4E487B7100000000000000000000000000000000000000000000000000000000 PUSH0 MSTORE PUSH1 0x11 PUSH1 0x4 MSTORE PUSH1 0x24 PUSH0 REVERT JUMPDEST PUSH0 DUP2 PUSH1 0x1 SHR SWAP1 POP SWAP2 SWAP1 POP JUMP JUMPDEST PUSH0 DUP1 DUP3 SWAP2 POP DUP4 SWAP1 POP JUMPDEST PUSH1 0x1 DUP6 GT ISZERO PUSH2 0xAC JUMPI DUP1 DUP7 DIV DUP2 GT ISZERO PUSH2 0x88 JUMPI PUSH2 0x87 PUSH2 0x2A JUMP JUMPDEST JUMPDEST PUSH1 0x1 DUP6 AND ISZERO PUSH2 0x97 JUMPI DUP1 DUP3 MUL SWAP2 POP JUMPDEST DUP1 DUP2 MUL SWAP1 POP PUSH2 0xA5 DUP6 PUSH2 0x57 JUMP JUMPDEST SWAP5 POP PUSH2 0x6C JUMP JUMPDEST SWAP5 POP SWAP5 SWAP3 POP POP POP JUMP JUMPDEST PUSH0 DUP3 PUSH2 0xC4 JUMPI PUSH1 0x1 SWAP1 POP PUSH2 0x17F JUMP JUMPDEST DUP2 PUSH2 0xD1 JUMPI PUSH0 SWAP1 POP PUSH2 0x17F JUMP JUMPDEST DUP2 PUSH1 0x1 DUP2 EQ PUSH2 0xE7 JUMPI PUSH1 0x2 DUP2 EQ PUSH2 0xF1 JUMPI PUSH2 0x120 JUMP JUMPDEST PUSH1 0x1 SWAP2 POP POP PUSH2 0x17F JUMP JUMPDEST PUSH1 0xFF DUP5 GT ISZERO PUSH2 0x103 JUMPI PUSH2 0x102 PUSH2 0x2A JUMP JUMPDEST JUMPDEST DUP4 PUSH1 0x2 EXP SWAP2 POP DUP5 DUP3 GT ISZERO PUSH2 0x11A JUMPI PUSH2 0x119 PUSH2 0x2A JUMP JUMPDEST JUMPDEST POP PUSH2 0x17F JUMP JUMPDEST POP PUSH1 0x20 DUP4 LT PUSH2 0x133 DUP4 LT AND PUSH1 0x4E DUP5 LT PUSH1 0xB DUP5 LT AND OR ISZERO PUSH2 0x155 JUMPI DUP3 DUP3 EXP SWAP1 POP DUP4 DUP2 GT ISZERO PUSH2 0x150 JUMPI PUSH2 0x14F PUSH2 0x2A JUMP JUMPDEST JUMPDEST PUSH2 0x17F JUMP JUMPDEST PUSH2 0x162 DUP5 DUP5 DUP5 PUSH1 0x1 PUSH2 0x63 JUMP JUMPDEST SWAP3 POP SWAP1 POP DUP2 DUP5 DIV DUP2 GT ISZERO PUSH2 0x179 JUMPI PUSH2 0x178 PUSH2 0x2A JUMP JUMPDEST JUMPDEST DUP2 DUP2 MUL SWAP1 POP JUMPDEST SWAP4 SWAP3 POP POP POP JUMP JUMPDEST PUSH0 DUP2 SWAP1 POP SWAP2 SWAP1 POP JUMP JUMPDEST PUSH0 PUSH2 0x199 DUP3 PUSH2 0x186 JUMP JUMPDEST SWAP2 POP PUSH2 0x1A4 DUP4 PUSH2 0x186 JUMP JUMPDEST SWAP3 POP PUSH2 0x1D1 PUSH32 0xFFFFFFFFFFFFFFFFFFFFFFFFFFFFFFFFFFFFFFFFFFFFFFFFFFFFFFFFFFFFFFFF DUP5 DUP5 PUSH2 0xB5 JUMP JUMPDEST SWAP1 POP SWAP3 SWAP2 POP POP JUMP JUMPDEST PUSH2 0x8B4 DUP1 PUSH2 0x1E6 PUSH0 CODECOPY PUSH0 RETURN INVALID PUSH1 0x80 PUSH1 0x40 MSTORE CALLVALUE DUP1 ISZERO PUSH2 0xF JUMPI PUSH0 DUP1 REVERT JUMPDEST POP PUSH1 0x4 CALLDATASIZE LT PUSH2 0x34 JUMPI PUSH0 CALLDATALOAD PUSH1 0xE0 SHR DUP1 PUSH4 0x2052465E EQ PUSH2 0x38 JUMPI DUP1 PUSH4 0x7BFF0A01 EQ PUSH2 0x69 JUMPI JUMPDEST PUSH0 DUP1 REVERT JUMPDEST PUSH2 0x52 PUSH1 0x4 DUP1 CALLDATASIZE SUB DUP2 ADD SWAP1 PUSH2 0x4D SWAP2 SWAP1 PUSH2 0x281 JUMP JUMPDEST PUSH2 0x85 JUMP JUMPDEST PUSH1 0x40 MLOAD PUSH2 0x60 SWAP3 SWAP2 SWAP1 PUSH2 0x32B JUMP JUMPDEST PUSH1 0x40 MLOAD DUP1 SWAP2 SUB SWAP1 RETURN JUMPDEST PUSH2 0x83 PUSH1 0x4 DUP1 CALLDATASIZE SUB DUP2 ADD SWAP1 PUSH2 0x7E SWAP2 SWAP1 PUSH2 0x485 JUMP JUMPDEST PUSH2 0x13A JUMP JUMPDEST STOP JUMPDEST PUSH1 0x2 DUP2 DUP2 SLOAD DUP2 LT PUSH2 0x94 JUMPI PUSH0 DUP1 REVERT JUMPDEST SWAP1 PUSH0 MSTORE PUSH1 0x20 PUSH0 KECCAK256 SWAP1 PUSH1 0x2 MUL ADD PUSH0 SWAP2 POP SWAP1 POP DUP1 PUSH0 ADD DUP1 SLOAD PUSH2 0xB3 SWAP1 PUSH2 0x4F9 JUMP JUMPDEST DUP1 PUSH1 0x1F ADD PUSH1 0x20 DUP1 SWAP2 DIV MUL PUSH1 0x20 ADD PUSH1 0x40 MLOAD SWAP1 DUP2 ADD PUSH1 0x40 MSTORE DUP1 SWAP3 SWAP2 SWAP1 DUP2 DUP2 MSTORE PUSH1 0x20 ADD DUP3 DUP1 SLOAD PUSH2 0xDF SWAP1 PUSH2 0x4F9 JUMP JUMPDEST DUP1 ISZERO PUSH2 0x12A JUMPI DUP1 PUSH1 0x1F LT PUSH2 0x101 JUMPI PUSH2 0x100 DUP1 DUP4 SLOAD DIV MUL DUP4 MSTORE SWAP2 PUSH1 0x20 ADD SWAP2 PUSH2 0x12A JUMP JUMPDEST DUP3 ADD SWAP2 SWAP1 PUSH0 MSTORE PUSH1 0x20 PUSH0 KECCAK256 SWAP1 JUMPDEST DUP2 SLOAD DUP2 MSTORE SWAP1 PUSH1 0x1 ADD SWAP1 PUSH1 0x20 ADD DUP1 DUP4 GT PUSH2 0x10D JUMPI DUP3 SWAP1 SUB PUSH1 0x1F AND DUP3 ADD SWAP2 JUMPDEST POP POP POP POP POP SWAP1 DUP1 PUSH1 0x1 ADD SLOAD SWAP1 POP DUP3 JUMP JUMPDEST PUSH0 PUSH2 0x144 DUP3 PUSH2 0x154 JUMP JUMPDEST SWAP1 POP PUSH2 0x150 DUP3 DUP3 PUSH2 0x197 JUMP JUMPDEST POP POP JUMP JUMPDEST PUSH0 DUP1 DUP3 PUSH1 0x40 MLOAD PUSH1 0x20 ADD PUSH2 0x167 SWAP2 SWAP1 PUSH2 0x563 JUMP JUMPDEST PUSH1 0x40 MLOAD PUSH1 0x20 DUP2 DUP4 SUB SUB DUP2 MSTORE SWAP1 PUSH1 0x40 MSTORE DUP1 MLOAD SWAP1 PUSH1 0x20 ADD KECCAK256 PUSH0 SHR SWAP1 POP PUSH1 0x1 SLOAD DUP2 PUSH2 0x18F SWAP2 SWAP1 PUSH2 0x5A6 JUMP JUMPDEST SWAP2 POP POP SWAP2 SWAP1 POP JUMP JUMPDEST PUSH0 PUSH1 0x2 DUP1 SLOAD SWAP1 POP SWAP1 POP PUSH1 0x2 PUSH1 0x40 MLOAD DUP1 PUSH1 0x40 ADD PUSH1 0x40 MSTORE DUP1 DUP6 DUP2 MSTORE PUSH1 0x20 ADD DUP5 DUP2 MSTORE POP SWAP1 DUP1 PUSH1 0x1 DUP2 SLOAD ADD DUP1 DUP3 SSTORE DUP1 SWAP2 POP POP PUSH1 0x1 SWAP1 SUB SWAP1 PUSH0 MSTORE PUSH1 0x20 PUSH0 KECCAK256 SWAP1 PUSH1 0x2 MUL ADD PUSH0 SWAP1 SWAP2 SWAP1 SWAP2 SWAP1 SWAP2 POP PUSH0 DUP3 ADD MLOAD DUP2 PUSH0 ADD SWAP1 DUP2 PUSH2 0x1F0 SWAP2 SWAP1 PUSH2 0x773 JUMP JUMPDEST POP PUSH1 0x20 DUP3 ADD MLOAD DUP2 PUSH1 0x1 ADD SSTORE POP POP PUSH32 0x88F026AACBBECC90C18411DF4B1185FD8D9BE2470F1962F192BF84A27D0704B7 DUP2 DUP5 DUP5 PUSH1 0x40 MLOAD PUSH2 0x230 SWAP4 SWAP3 SWAP2 SWAP1 PUSH2 0x842 JUMP JUMPDEST PUSH1 0x40 MLOAD DUP1 SWAP2 SUB SWAP1 LOG1 POP POP POP JUMP JUMPDEST PUSH0 PUSH1 0x40 MLOAD SWAP1 POP SWAP1 JUMP JUMPDEST PUSH0 DUP1 REVERT JUMPDEST PUSH0 DUP1 REVERT JUMPDEST PUSH0 DUP2 SWAP1 POP SWAP2 SWAP1 POP JUMP JUMPDEST PUSH2 0x260 DUP2 PUSH2 0x24E JUMP JUMPDEST DUP2 EQ PUSH2 0x26A JUMPI PUSH0 DUP1 REVERT JUMPDEST POP JUMP JUMPDEST PUSH0 DUP2 CALLDATALOAD SWAP1 POP PUSH2 0x27B DUP2 PUSH2 0x257 JUMP JUMPDEST SWAP3 SWAP2 POP POP JUMP JUMPDEST PUSH0 PUSH1 0x20 DUP3 DUP5 SUB SLT ISZERO PUSH2 0x296 JUMPI PUSH2 0x295 PUSH2 0x246 JUMP JUMPDEST JUMPDEST PUSH0 PUSH2 0x2A3 DUP5 DUP3 DUP6 ADD PUSH2 0x26D JUMP JUMPDEST SWAP2 POP POP SWAP3 SWAP2 POP POP JUMP JUMPDEST PUSH0 DUP2 MLOAD SWAP1 POP SWAP2 SWAP1 POP JUMP JUMPDEST PUSH0 DUP3 DUP3 MSTORE PUSH1 0x20 DUP3 ADD SWAP1 POP SWAP3 SWAP2 POP POP JUMP JUMPDEST DUP3 DUP2 DUP4 MCOPY PUSH0 DUP4 DUP4 ADD MSTORE POP POP POP JUMP JUMPDEST PUSH0 PUSH1 0x1F NOT PUSH1 0x1F DUP4 ADD AND SWAP1 POP SWAP2 SWAP1 POP JUMP JUMPDEST PUSH0 PUSH2 0x2EE DUP3 PUSH2 0x2AC JUMP JUMPDEST PUSH2 0x2F8 DUP2 DUP6 PUSH2 0x2B6 JUMP JUMPDEST SWAP4 POP PUSH2 0x308 DUP2 DUP6 PUSH1 0x20 DUP7 ADD PUSH2 0x2C6 JUMP JUMPDEST PUSH2 0x311 DUP2 PUSH2 0x2D4 JUMP JUMPDEST DUP5 ADD SWAP2 POP POP SWAP3 SWAP2 POP POP JUMP JUMPDEST PUSH2 0x325 DUP2 PUSH2 0x24E JUMP JUMPDEST DUP3 MSTORE POP POP JUMP JUMPDEST PUSH0 PUSH1 0x40 DUP3 ADD SWAP1 POP DUP2 DUP2 SUB PUSH0 DUP4 ADD MSTORE PUSH2 0x343 DUP2 DUP6 PUSH2 0x2E4 JUMP JUMPDEST SWAP1 POP PUSH2 0x352 PUSH1 0x20 DUP4 ADD DUP5 PUSH2 0x31C JUMP JUMPDEST SWAP4 SWAP3 POP POP POP JUMP JUMPDEST PUSH0 DUP1 REVERT JUMPDEST PUSH0 DUP1 REVERT JUMPDEST PUSH32 0x4E487B7100000000000000000000000000000000000000000000000000000000 PUSH0 MSTORE PUSH1 0x41 PUSH1 0x4 MSTORE PUSH1 0x24 PUSH0 REVERT JUMPDEST PUSH2 0x397 DUP3 PUSH2 0x2D4 JUMP JUMPDEST DUP2 ADD DUP2 DUP2 LT PUSH8 0xFFFFFFFFFFFFFFFF DUP3 GT OR ISZERO PUSH2 0x3B6 JUMPI PUSH2 0x3B5 PUSH2 0x361 JUMP JUMPDEST JUMPDEST DUP1 PUSH1 0x40 MSTORE POP POP POP JUMP JUMPDEST PUSH0 PUSH2 0x3C8 PUSH2 0x23D JUMP JUMPDEST SWAP1 POP PUSH2 0x3D4 DUP3 DUP3 PUSH2 0x38E JUMP JUMPDEST SWAP2 SWAP1 POP JUMP JUMPDEST PUSH0 PUSH8 0xFFFFFFFFFFFFFFFF DUP3 GT ISZERO PUSH2 0x3F3 JUMPI PUSH2 0x3F2 PUSH2 0x361 JUMP JUMPDEST JUMPDEST PUSH2 0x3FC DUP3 PUSH2 0x2D4 JUMP JUMPDEST SWAP1 POP PUSH1 0x20 DUP2 ADD SWAP1 POP SWAP2 SWAP1 POP JUMP JUMPDEST DUP3 DUP2 DUP4 CALLDATACOPY PUSH0 DUP4 DUP4 ADD MSTORE POP POP POP JUMP JUMPDEST PUSH0 PUSH2 0x429 PUSH2 0x424 DUP5 PUSH2 0x3D9 JUMP JUMPDEST PUSH2 0x3BF JUMP JUMPDEST SWAP1 POP DUP3 DUP2 MSTORE PUSH1 0x20 DUP2 ADD DUP5 DUP5 DUP5 ADD GT ISZERO PUSH2 0x445 JUMPI PUSH2 0x444 PUSH2 0x35D JUMP JUMPDEST JUMPDEST PUSH2 0x450 DUP5 DUP3 DUP6 PUSH2 0x409 JUMP JUMPDEST POP SWAP4 SWAP3 POP POP POP JUMP JUMPDEST PUSH0 DUP3 PUSH1 0x1F DUP4 ADD SLT PUSH2 0x46C JUMPI PUSH2 0x46B PUSH2 0x359 JUMP JUMPDEST JUMPDEST DUP2 CALLDATALOAD PUSH2 0x47C DUP5 DUP3 PUSH1 0x20 DUP7 ADD PUSH2 0x417 JUMP JUMPDEST SWAP2 POP POP SWAP3 SWAP2 POP POP JUMP JUMPDEST PUSH0 PUSH1 0x20 DUP3 DUP5 SUB SLT ISZERO PUSH2 0x49A JUMPI PUSH2 0x499 PUSH2 0x246 JUMP JUMPDEST JUMPDEST PUSH0 DUP3 ADD CALLDATALOAD PUSH8 0xFFFFFFFFFFFFFFFF DUP2 GT ISZERO PUSH2 0x4B7 JUMPI PUSH2 0x4B6 PUSH2 0x24A JUMP JUMPDEST JUMPDEST PUSH2 0x4C3 DUP5 DUP3 DUP6 ADD PUSH2 0x458 JUMP JUMPDEST SWAP2 POP POP SWAP3 SWAP2 POP POP JUMP JUMPDEST PUSH32 0x4E487B7100000000000000000000000000000000000000000000000000000000 PUSH0 MSTORE PUSH1 0x22 PUSH1 0x4 MSTORE PUSH1 0x24 PUSH0 REVERT JUMPDEST PUSH0 PUSH1 0x2 DUP3 DIV SWAP1 POP PUSH1 0x1 DUP3 AND DUP1 PUSH2 0x510 JUMPI PUSH1 0x7F DUP3 AND SWAP2 POP JUMPDEST PUSH1 0x20 DUP3 LT DUP2 SUB PUSH2 0x523 JUMPI PUSH2 0x522 PUSH2 0x4CC JUMP JUMPDEST JUMPDEST POP SWAP2 SWAP1 POP JUMP JUMPDEST PUSH0 DUP2 SWAP1 POP SWAP3 SWAP2 POP POP JUMP JUMPDEST PUSH0 PUSH2 0x53D DUP3 PUSH2 0x2AC JUMP JUMPDEST PUSH2 0x547 DUP2 DUP6 PUSH2 0x529 JUMP JUMPDEST SWAP4 POP PUSH2 0x557 DUP2 DUP6 PUSH1 0x20 DUP7 ADD PUSH2 0x2C6 JUMP JUMPDEST DUP1 DUP5 ADD SWAP2 POP POP SWAP3 SWAP2 POP POP JUMP JUMPDEST PUSH0 PUSH2 0x56E DUP3 DUP5 PUSH2 0x533 JUMP JUMPDEST SWAP2 POP DUP2 SWAP1 POP SWAP3 SWAP2 POP POP JUMP JUMPDEST PUSH32 0x4E487B7100000000000000000000000000000000000000000000000000000000 PUSH0 MSTORE PUSH1 0x12 PUSH1 0x4 MSTORE PUSH1 0x24 PUSH0 REVERT JUMPDEST PUSH0 PUSH2 0x5B0 DUP3 PUSH2 0x24E JUMP JUMPDEST SWAP2 POP PUSH2 0x5BB DUP4 PUSH2 0x24E JUMP JUMPDEST SWAP3 POP DUP3 PUSH2 0x5CB JUMPI PUSH2 0x5CA PUSH2 0x579 JUMP JUMPDEST JUMPDEST DUP3 DUP3 MOD SWAP1 POP SWAP3 SWAP2 POP POP JUMP JUMPDEST PUSH0 DUP2 SWAP1 POP DUP2 PUSH0 MSTORE PUSH1 0x20 PUSH0 KECCAK256 SWAP1 POP SWAP2 SWAP1 POP JUMP JUMPDEST PUSH0 PUSH1 0x20 PUSH1 0x1F DUP4 ADD DIV SWAP1 POP SWAP2 SWAP1 POP JUMP JUMPDEST PUSH0 DUP3 DUP3 SHL SWAP1 POP SWAP3 SWAP2 POP POP JUMP JUMPDEST PUSH0 PUSH1 0x8 DUP4 MUL PUSH2 0x632 PUSH32 0xFFFFFFFFFFFFFFFFFFFFFFFFFFFFFFFFFFFFFFFFFFFFFFFFFFFFFFFFFFFFFFFF DUP3 PUSH2 0x5F7 JUMP JUMPDEST PUSH2 0x63C DUP7 DUP4 PUSH2 0x5F7 JUMP JUMPDEST SWAP6 POP DUP1 NOT DUP5 AND SWAP4 POP DUP1 DUP7 AND DUP5 OR SWAP3 POP POP POP SWAP4 SWAP3 POP POP POP JUMP JUMPDEST PUSH0 DUP2 SWAP1 POP SWAP2 SWAP1 POP JUMP JUMPDEST PUSH0 PUSH2 0x677 PUSH2 0x672 PUSH2 0x66D DUP5 PUSH2 0x24E JUMP JUMPDEST PUSH2 0x654 JUMP JUMPDEST PUSH2 0x24E JUMP JUMPDEST SWAP1 POP SWAP2 SWAP1 POP JUMP JUMPDEST PUSH0 DUP2 SWAP1 POP SWAP2 SWAP1 POP JUMP JUMPDEST PUSH2 0x690 DUP4 PUSH2 0x65D JUMP JUMPDEST PUSH2 0x6A4 PUSH2 0x69C DUP3 PUSH2 0x67E JUMP JUMPDEST DUP5 DUP5 SLOAD PUSH2 0x603 JUMP JUMPDEST DUP3 SSTORE POP POP POP POP JUMP JUMPDEST PUSH0 SWAP1 JUMP JUMPDEST PUSH2 0x6B8 PUSH2 0x6AC JUMP JUMPDEST PUSH2 0x6C3 DUP2 DUP5 DUP5 PUSH2 0x687 JUMP JUMPDEST POP POP POP JUMP JUMPDEST JUMPDEST DUP2 DUP2 LT ISZERO PUSH2 0x6E6 JUMPI PUSH2 0x6DB PUSH0 DUP3 PUSH2 0x6B0 JUMP JUMPDEST PUSH1 0x1 DUP2 ADD SWAP1 POP PUSH2 0x6C9 JUMP JUMPDEST POP POP JUMP JUMPDEST PUSH1 0x1F DUP3 GT ISZERO PUSH2 0x72B JUMPI PUSH2 0x6FC DUP2 PUSH2 0x5D6 JUMP JUMPDEST PUSH2 0x705 DUP5 PUSH2 0x5E8 JUMP JUMPDEST DUP2 ADD PUSH1 0x20 DUP6 LT ISZERO PUSH2 0x714 JUMPI DUP2 SWAP1 POP JUMPDEST PUSH2 0x728 PUSH2 0x720 DUP6 PUSH2 0x5E8 JUMP JUMPDEST DUP4 ADD DUP3 PUSH2 0x6C8 JUMP JUMPDEST POP POP JUMPDEST POP POP POP JUMP JUMPDEST PUSH0 DUP3 DUP3 SHR SWAP1 POP SWAP3 SWAP2 POP POP JUMP JUMPDEST PUSH0 PUSH2 0x74B PUSH0 NOT DUP5 PUSH1 0x8 MUL PUSH2 0x730 JUMP JUMPDEST NOT DUP1 DUP4 AND SWAP2 POP POP SWAP3 SWAP2 POP POP JUMP JUMPDEST PUSH0 PUSH2 0x763 DUP4 DUP4 PUSH2 0x73C JUMP JUMPDEST SWAP2 POP DUP3 PUSH1 0x2 MUL DUP3 OR SWAP1 POP SWAP3 SWAP2 POP POP JUMP JUMPDEST PUSH2 0x77C DUP3 PUSH2 0x2AC JUMP JUMPDEST PUSH8 0xFFFFFFFFFFFFFFFF DUP2 GT ISZERO PUSH2 0x795 JUMPI PUSH2 0x794 PUSH2 0x361 JUMP JUMPDEST JUMPDEST PUSH2 0x79F DUP3 SLOAD PUSH2 0x4F9 JUMP JUMPDEST PUSH2 0x7AA DUP3 DUP3 DUP6 PUSH2 0x6EA JUMP JUMPDEST PUSH0 PUSH1 0x20 SWAP1 POP PUSH1 0x1F DUP4 GT PUSH1 0x1 DUP2 EQ PUSH2 0x7DB JUMPI PUSH0 DUP5 ISZERO PUSH2 0x7C9 JUMPI DUP3 DUP8 ADD MLOAD SWAP1 POP JUMPDEST PUSH2 0x7D3 DUP6 DUP3 PUSH2 0x758 JUMP JUMPDEST DUP7 SSTORE POP PUSH2 0x83A JUMP JUMPDEST PUSH1 0x1F NOT DUP5 AND PUSH2 0x7E9 DUP7 PUSH2 0x5D6 JUMP JUMPDEST PUSH0 JUMPDEST DUP3 DUP2 LT ISZERO PUSH2 0x810 JUMPI DUP5 DUP10 ADD MLOAD DUP3 SSTORE PUSH1 0x1 DUP3 ADD SWAP2 POP PUSH1 0x20 DUP6 ADD SWAP5 POP PUSH1 0x20 DUP2 ADD SWAP1 POP PUSH2 0x7EB JUMP JUMPDEST DUP7 DUP4 LT ISZERO PUSH2 0x82D JUMPI DUP5 DUP10 ADD MLOAD PUSH2 0x829 PUSH1 0x1F DUP10 AND DUP3 PUSH2 0x73C JUMP JUMPDEST DUP4 SSTORE POP JUMPDEST PUSH1 0x1 PUSH1 0x2 DUP9 MUL ADD DUP9 SSTORE POP POP POP JUMPDEST POP POP POP POP POP POP JUMP JUMPDEST PUSH0 PUSH1 0x60 DUP3 ADD SWAP1 POP PUSH2 0x855 PUSH0 DUP4 ADD DUP7 PUSH2 0x31C JUMP JUMPDEST DUP2 DUP2 SUB PUSH1 0x20 DUP4 ADD MSTORE PUSH2 0x867 DUP2 DUP6 PUSH2 0x2E4 JUMP JUMPDEST SWAP1 POP PUSH2 0x876 PUSH1 0x40 DUP4 ADD DUP5 PUSH2 0x31C JUMP JUMPDEST SWAP5 SWAP4 POP POP POP POP JUMP INVALID LOG2 PUSH5 0x6970667358 0x22 SLT KECCAK256 GASPRICE 0x27 GASLIMIT CREATE 0xE0 0xC9 0xDB TIMESTAMP CODESIZE MSTORE8 SHL SLT NUMBER PC MULMOD DUP14 0xD4 PUSH17 0x5B9D8D5A3776B7BD7BC35984125664736F PUSH13 0x634300081A0033000000000000 "
				},
				"gasEstimates": {
					"creation": {
						"codeDepositCost": "445600",
						"executionCost": "infinite",
						"totalCost": "infinite"
					},
					"external": {
						"createRandomZombie(string)": "infinite",
						"zombies(uint256)": "infinite"
					},
					"internal": {
						"_createZombie(string memory,uint256)": "infinite",
						"_generateRandomDna(string memory)": "infinite"
					}
				},
				"methodIdentifiers": {
					"createRandomZombie(string)": "7bff0a01",
					"zombies(uint256)": "2052465e"
				}
			},
			"storageLayout": {
				"storage": [
					{
						"astId": 12,
						"contract": "contracts/4_ZombieFactory.sol:ZombieFactory",
						"label": "dnaDigits",
						"offset": 0,
						"slot": "0",
						"type": "t_uint256"
					},
					{
						"astId": 17,
						"contract": "contracts/4_ZombieFactory.sol:ZombieFactory",
						"label": "dnaModulus",
						"offset": 0,
						"slot": "1",
						"type": "t_uint256"
					},
					{
						"astId": 26,
						"contract": "contracts/4_ZombieFactory.sol:ZombieFactory",
						"label": "zombies",
						"offset": 0,
						"slot": "2",
						"type": "t_array(t_struct(Zombie)22_storage)dyn_storage"
					}
				],
				"types": {
					"t_array(t_struct(Zombie)22_storage)dyn_storage": {
						"base": "t_struct(Zombie)22_storage",
						"encoding": "dynamic_array",
						"label": "struct ZombieFactory.Zombie[]",
						"numberOfBytes": "32"
					},
					"t_string_storage": {
						"encoding": "bytes",
						"label": "string",
						"numberOfBytes": "32"
					},
					"t_struct(Zombie)22_storage": {
						"encoding": "inplace",
						"label": "struct ZombieFactory.Zombie",
						"members": [
							{
								"astId": 19,
								"contract": "contracts/4_ZombieFactory.sol:ZombieFactory",
								"label": "name",
								"offset": 0,
								"slot": "0",
								"type": "t_string_storage"
							},
							{
								"astId": 21,
								"contract": "contracts/4_ZombieFactory.sol:ZombieFactory",
								"label": "dna",
								"offset": 0,
								"slot": "1",
								"type": "t_uint256"
							}
						],
						"numberOfBytes": "64"
					},
					"t_uint256": {
						"encoding": "inplace",
						"label": "uint256",
						"numberOfBytes": "32"
					}
				}
			},
			"userdoc": {
				"kind": "user",
				"methods": {},
				"version": 1
			}
		}
	}
}